S01100005264744F6E65424C452E73726563F4
S113000029C100000C9498224EC100004CC100008C
S11300104AC1000048C1000046C1000044C10000BC
S113002042C1000040C100003EC100003CC10000CC
S11300303AC1000038C1000036C100000C94A4236A
S113004032C1000030C100000C94001F0C944C1FFE
S11300500C94751F0C94062226C1000024C10000D4
S113006022C1000020C100001EC100001CC100000C
S11300701AC1000018C100000C94CC200C941D215E
S11300800C94462110C100000EC10000CB15F115DF
S1130090CF15F115D315F115D715F115DD15F1159A
S11300A0DD15F115F115F115DA15F115E215F11556
S11300B0F115F115E715F115EA15F115F115F1151D
S11300C0F115F115ED15F115F115F115F115F11500
S11300D0F115F115F115F115F115F115F115F115EC
S11300E0F115F115F115F115F115F115F115F115DC
S11300F0F115F115F115F115F115F115F115F115CC
S1130100F115F115F115F115F115F115F115F115BB
S1130110F115F115F115F115F115F115F115F115AB
S1130120F115F115F115F115F115F115E2156E61E1
S11301306E00696E660000407A10F35A00A0724E99
S113014018090010A5D4E80000E87648170000E478
S11301500B54020000CA9A3B000000E1F5050000C0
S113016080969800000040420F000000A086010025
S11301700000102700000000E803000000006400F5
S1130180000000000A000000000001000000000060
S11301902C76D888DC674F0823DFC1DFAE59E1B184
S11301A0B796E5E3E453C63AE651997696E8E6C293
S11301B08426EB898C9B62ED407C6FFCEFBC9C9F9A
S11301C040F2BAA56FA5F490055A2AF75C936B6CBC
S11301D0F9676DC11BFCE0E40D47FEF520E6B500B0
S11301E0D0ED902E0300943577050080841E08001E
S11301F000204E0A000000C80C333333330F986ECE
S113020012831141EF8D2114893BE65516CFFEE68A
S1130210DB18D1844B381BF77C1D901DA4BBE42450
S1130220203284725E228100C9F124ECA1E53D27CD
S11302302902BE05FE156417BD18AE1C211D041E3F
S1130240CC1F6F212F22C122CD233502C2050316F4
S1130250F218D82311241FBECFEFD0E1DEBFCDBFEB
S113026013E0A0E0B1E0E4E5FFE500E00BBF02C06D
S113027007900D92A432B107D9F726E0A4E2B3E0C7
S113028001C01D92A53BB207E1F711E0C5E2D1E040
S113029004C02197FE010E94922AC831D107C9F7F0
S11302A082D00C949E2FACCE22EF31E0FC0131833E
S11302B020839EC50895CF93DF93EC0182EF91E0F4
S11302C099838883CE0194D5CE010E94DE23DF91E9
S11302D0CF91089522EF31E0FC013183208388C55A
S11302E00895CF93DF93EC0182EF91E099838883A3
S11302F0CE017ED5CE010E94DE23DF91CF910895F9
S113030062EE71E08AE096E00E94922066E071E07D
S11303108AE096E00E94922068E171E08AE096E02B
S11303200E9492206DE371E08AE096E00E949220A0
S11303306BE571E08AE096E00E94922062E771E04A
S11303408AE096E00C949220089580912D038823EE
S113035049F010922D0369E871E08AE096E00C946C
S11303609220089581E080932D036CE971E08AE086
S113037096E00C949220089580912C03882349F0F0
S113038010922C036EEA71E08AE096E00C949220BD
S1130390089581E080932C0361EC71E08AE096E09B
S11303A00C949220089510922D0310922C0340E097
S11303B052EC61E070E08AE096E00E94D51F40E0D4
S11303C052EC61E070E086E895E00E940F1E64E163
S11303D070E085EA96E00E94C5228BE996E00E94CF
S11303E03F228EE896E00E948D21789465ED71E0BD
S11303F08AE096E00E94922065ED71E086E895E03F
S11304000E94D51E7DDF8AE096E00E940420992791
S11304108B329105A1F034F48132910551F0839728
S113042061F0F1CF8D32910579F08034910519F0A6
S1130430EACF66DFE8CF89DFE6CF9EDFE4CF85EA47
S113044096E00E94DF22DFCF85EA96E00E940D232A
S1130450DACF64EE71E088E293E04ED642E169EED1
S113046071E084E293E08AC6089582EF91E090936C
S113047025038093240384E293E0BAD488E293E0D2
S113048013C6089583E098E20895FC0187890895CE
S1130490FC01808D918D0895FC0182A193A10895A2
S11304A0FC01828D90E00895EF92FF920F931F93C9
S11304B0CF93DF93EC017B018A01488D598D04179A
S11304C015070CF4402F4A8F50E0B7018AA19BA175
S11304D00E94B72E8B8D882311F0888D8A8F8F8987
S11304E085FF11C098A191FF0EC02A8D30E04AA16A
S11304F05BA16C8D7D8D6F5F7F4F8CE593E00E94D7
S1130500340B90E03CC084FF11C088A180FF0EC072
S11305102A8D30E04AA15BA16C8D7D8D6F5F7F4F8A
S11305208CE593E00E94CC0A90E029C08E8D88234C
S1130530F1F0BE0189E893E00E94FA179801A7013F
S1130540BC0185E793E00E945C178CE593E0CED76D
S1130550811110C085E793E00E942516882369F075
S113056085E793E00E94281681E090E008C081E0CE
S113057090E005C081E090E002C081E090E0DF916E
S1130580CF911F910F91FF90EF900895FC01848DFE
S1130590958D0895FC01848D958D01960895DC0157
S11305A094962D913C9195976217730798F49696BB
S11305B0ED91FC9197976115710549F080E090E009
S11305C00280F381E02D019668177907C9F78081CD
S11305D09181089580E090E008950F931F93CF9345
S11305E0DF93EC018B0184E090E00E94DC23FC01AA
S11305F013821282118300832A813B81232B19F4F5
S11306009B838A8304C0EC81FD81938382839D83D1
S11306108C8388819981019699838883DF91CF9116
S11306201F910F910895EF92FF920F931F93CF9311
S1130630DF93EC01142F7901B6D38FEF91E0998306
S113064088831F8B9E2D8F2D21E0E21622E0F20677
S113065014F090E082E0988F898F1A8E0B8F1D8E94
S11306601C8E1E8E1F8E19A218A21DA21CA21FA2D0
S11306701EA219A618A688E0FE01BA96DF011D92F3
S11306808A95E9F7107389F08DE190E00E94DC23EC
S11306908C0122E030E0AE01405E5F4F66EF71E016
S11306A0C6D1B801CE01849698DFC7010E94B42A4E
S11306B09BA38AA3DF91CF911F910F91FF90EF909D
S11306C00895EF92FF920F931F93CF93DF937C01D2
S11306D0FC018281938120813181232B81F0C0E050
S11306E0D0E0FC01028113810E94DE232196802F39
S11306F0912FF70120813181C217D30790F3F701BD
S1130700118210821382128215821482DF91CF919A
S11307101F910F91FF90EF900895EF92FF920F9326
S11307201F93CF93DF937C018FEF91E0D701119654
S11307309C938E9394968D919C919597892BE1F03F
S1130740C0E0D0E0BE01C7012ADF8C0149D31816EE
S113075019065CF00115110541F0D801ED91FC91E9
S11307600280F381E02DC80109952196F70184A147
S113077095A1C817D90730F3E701A496CE01A1DFEC
S1130780D70192968D919C919397009711F00E94B6
S11307904C2BCE0196DFC701FFD2DF91CF911F9181
S11307A00F91FF90EF900895CF93DF93EC01B5DFA5
S11307B0CE010E94DE23DF91CF9108956F927F9244
S11307C08F929F92AF92BF92CF92DF92EF92FF925D
S11307D00F931F93CF93DF93CDB7DEB7A0970FB6D8
S11307E0F894DEBF0FBECDBF7C016B013A01490115
S11307F0FC01A6A4B7A4A114B10459F1BC01CE0113
S11308004D961ED387E692E09A83898382E1F601AE
S11308103296DE01139601900D928A95E1F7F60166
S1130820848995899E8B8D8B86E07696DE0157961A
S113083001900D928A95E1F7BE01635E7F4FCE0170
S11308400196F5010995CE01019636D3CE014D9658
S1130850CFD2F70162A173A1660D771DA801C4016F
S11308600E94B72EA0960FB6F894DEBF0FBECDBF80
S1130870DF91CF911F910F91FF90EF90DF90CF9078
S1130880BF90AF909F908F907F906F900895CF927C
S1130890DF92EF92FF920F931F93CF93DF93CDB725
S11308A0DEB7A0970FB6F894DEBF0FBECDBF8C01A4
S11308B07B01BA0181E0F801878FA901C801F4DD49
S11308C0F801C0A8D1A8C114D10459F1B801CE01CE
S11308D04D96B6D287E692E09A83898382E1F70146
S11308E03296DE01139601900D928A95E1F7F70195
S11308F0848995899E8B8D8B86E07696DE0157964A
S113090001900D928A95E1F7BE01635E7F4FCE019F
S11309100196F6010995CE010196CED2CE014D96EF
S113092067D2A0960FB6F894DEBF0FBECDBFDF919D
S1130930CF911F910F91FF90EF90DF90CF9008958A
S1130940EF92FF920F931F93CF93DF93CDB7DEB750
S1130950A0970FB6F894DEBF0FBECDBF43705527E6
S1130960FC0120A131A14217530709F43FC051A350
S113097040A321E030E0452B11F020E030E0D90124
S11309805596AA0FBB1FA80FB91FED90FC90E11458
S1130990F10461F18B01BC01CE014D9651D287E681
S11309A092E09A83898382E1F8013296DE011396FC
S11309B001900D928A95E1F7F801848995899E8BBF
S11309C08D8B86E07696DE01579601900D928A957E
S11309D0E1F7BE01635E7F4FCE010196F7010995F1
S11309E0CE01019669D2CE014D9602D2A0960FB6E1
S11309F0F894DEBF0FBECDBFDF91CF911F910F9151
S1130A00FF90EF90089580E099E2089529E032E0A4
S1130A10FC0131832083C0C10895CF93DF93EC019F
S1130A20F5DFCE010E94DE23DF91CF910895EF928E
S1130A30FF920F931F93CF93DF93EC017A01022F60
S1130A40132FB1D189E092E099838883F88EEF8ADD
S1130A50802F912F813022E0920714F080E092E001
S1130A609A8F898F1C8E1B8EDF91CF911F910F91CE
S1130A70FF90EF900895FC01818D928D0895FC0103
S1130A808789908D089581E0089521E0681779079A
S1130A9009F020E0822F089521E06817790709F40E
S1130AA020E0822F089521E332E0FC01318320838A
S1130AB003C20895CF93DF93EC01F5DFCE010E94CA
S1130AC0DE23DF91CF91089589E694E00E94041A11
S1130AD08CE593E00BC508958CE593E024C5089557
S1130AE00F931F93CF93DF9300D000D000D0CDB7E6
S1130AF0DEB78C01BE016F5F7F4F86E0FB01119270
S1130B008A95E9F789E694E00E94671B045E1F4F0B
S1130B1089811F928F938A811F928F938B811F9259
S1130B208F938C811F928F938D811F928F938E81CF
S1130B301F928F938FE092E09F938F931F930F9355
S1130B400E940E2F0FB6F894DEBF0FBECDBFC801B2
S1130B5026960FB6F894DEBF0FBECDBFDF91CF91BE
S1130B601F910F910895CF93DF93EC0177D281E326
S1130B7092E099838883DF91CF9108958EE293E088
S1130B80F2CF08958EE293E08ECF08950F931F93D2
S1130B90CF93DF93CDB7DEB76C970FB6F894DEBF73
S1130BA00FBECDBF6CE573E0CE010196DED4CE015D
S1130BB00196F5D1882329F0CE010196E1D18C016B
S1130BC002C00FE710E0CE01019676D1C8016C9601
S1130BD00FB6F894DEBF0FBECDBFDF91CF911F914A
S1130BE00F91089580E098E20895CF93DF93EC018C
S1130BF0DAD08BE492E099838883188E1F8A1A8E48
S1130C00198E1C8E1B8E1E8E1D8E18A21F8EDF91B8
S1130C10CF910895FC018789908D0895FC01818D01
S1130C20928D0895DC015B962D913C915C9762173F
S1130C30730798F45D96ED91FC915E9761157105CB
S1130C4049F080E090E00280F381E02D019668177E
S1130C507907C9F780819181089580E090E0089533
S1130C600F931F93CF93DF93EC018B01CB01B0D093
S1130C7084E090E00E94DC23FC0113821282118341
S1130C8000832D8D3E8D232B19F49E8F8D8F04C0F0
S1130C90EF8DF8A19383828398A38F8F8B8D9C8D86
S1130CA001969C8F8B8FDF91CF911F910F910895A7
S1130CB0EF92FF920F931F93CF93DF937C01FC017C
S1130CC08281938120813181232B81F0C0E0D0E0A7
S1130CD0FC01028113810E94DE232196802F912F33
S1130CE0F70120813181C217D30790F3F7011182F4
S1130CF010821382128215821482DF91CF911F9188
S1130D000F91FF90EF900895EF92FF920F931F932E
S1130D10CF93DF937C018BE492E0D70111969C93EF
S1130D208E935B968D919C915C97892BE1F0C0E04A
S1130D30D0E0BE01C70176DF8C0152D01816190627
S1130D405CF00115110541F0D801ED91FC91028090
S1130D50F381E02DC80109952196F701838D948DC7
S1130D60C817D90730F3E7016B96CE01A1DFCE0196
S1130D709FDFC70111D0DF91CF911F910F91FF9099
S1130D80EF900895CF93DF93EC01BEDFCE010E9474
S1130D90DE23DF91CF910895089580E090E00895D7
S1130DA00C94DE230895CF93DF93EC0125E532E024
S1130DB0FC0121933193CF01ECD11E8A1D8ADF916E
S1130DC0CF910895029650C2089502964FC2089595
S1130DD0FC0125893689C9010196968B858B089576
S1130DE0FC0125893689C9010197968B858B089565
S1130DF0CF93DF93FC018FE592E09183808382811E
S1130E009381009781F0EF01EBDF181619065CF06F
S1130E108A819B81009739F0DC01ED91FC9102807D
S1130E20F381E02D0995DF91CF910895CF93DF935E
S1130E30EC01DEDFCE010E94DE23DF91CF91089525
S1130E402FE532E0FC0131832083738362836115D3
S1130E50710511F0CB01BCCF0895AF92BF92CF9230
S1130E60DF92EF92FF920F931F93CF93DF937C0156
S1130E706B01142F590182E390E00E94DC23EC0102
S1130E809501412FB601CFDBBE01C701D9DFDF9148
S1130E90CF911F910F91FF90EF90DF90CF90BF9073
S1130EA0AF900895FC0182819381009711F0FCCAF0
S1130EB0089580E090E00895089589E694E00C9404
S1130EC0041A089589E694E00C9494190895CF9334
S1130ED0DF93EC0189E694E00E94041AE881F98129
S1130EE00088F189E02DCE010995882341F0AE01F7
S1130EF04A5E5F4F6C897D898CE593E000D3DF9176
S1130F00CF910895FC01648975896F3FFFEF7F07D6
S1130F1049F089E694E00E94971C21E0892B19F49A
S1130F2020E001C020E0822F0895CF93DF93FC01DD
S1130F30EC01229686891F928F9387891F928F9343
S1130F40808D1F928F93818D1F928F93828D1F921C
S1130F508F93838D1F928F938FE092E09F938F9353
S1130F60DF93CF930E940E2F8DB79EB740960FB696
S1130F70F8949EBF0FBE8DBFCE01DF91CF9108952F
S1130F80FC01648975896F3FFFEF7F0729F089E6CB
S1130F9094E00C94841B08958FE790E00895CF9318
S1130FA0DF9300D000D000D0CDB7DEB7FE0131967C
S1130FB026E0DF011D922A95E9F7FC012489358991
S1130FC02F3F3F4F69F046E050E0BE016F5F7F4F17
S1130FD046960E94AA2E21E0892B19F420E001C034
S1130FE020E0822F26960FB6F894DEBF0FBECDBF49
S1130FF0DF91CF910895FC0144895589FB0124892F
S113100035894217530761F46A5E7F4F46E050E02A
S113101046960E94AA2E21E0892B19F020E001C0F7
S113102020E0822F0895FC0144895589FB0124891D
S113103035894217530761F46A5E7F4F46E050E0FA
S113104046960E94AA2E21E0892B19F420E001C0C3
S113105021E0822F08950C94DE23089527E632E0E0
S1131060DC0111963C932E932FEF3FEF55963C9362
S11310702E935497FC01769626E0DF011D922A9563
S1131080E9F70895DC0187E692E011969C938E932C
S113109055967C936E935497569686E0FA01019088
S11310A00D928A95E1F70895CF93DF93FC0181E8CF
S11310B092E09183808382819381009781F0EF0194
S11310C08FDE181619065CF08A819B81009739F02F
S11310D0DC01ED91FC910280F381E02D0995DF9113
S11310E0CF910895CF93DF93EC01DEDFCE010E9410
S11310F0DE23DF91CF910895EF92FF920F931F9318
S1131100CF93DF938C017B0181E290E00E94DC238A
S1131110EC01B7016ADD81E892E0F80191838083F4
S1131120D383C283209711F0CE0152DEDF91CF9199
S11311301F910F91FF90EF900895EF92FF920F93FC
S1131140CF93DF931F92CDB7DEB77C0101E021E09E
S113115030E083DE82EF91E0F7019183808319828E
S113116041E050E0BE016F5F7F4FC7019BDE0F90EF
S1131170DF91CF910F91FF90EF900895CF93DF937C
S1131180EC01DBDF89E892E099838883DF91CF91DA
S11311900895AF92BF92DF92EF92FF920F931F9345
S11311A0CF93DF9300D01F92CDB7DEB77C015B01F4
S11311B0FC016193719319821A821B8280E1DF0121
S11311C01D928A95E9F7F701128AFB01019000202C
S11311D0E9F78F01061B170B0250110982F1D12C7C
S11311E006C0D7015296DC90BFE0BD1518F1F50199
S11311F0E00FF11F80818D3219F40F5F1F4F17C06C
S1131200F501E00FF11F3197908199838A8340E1C2
S113121050E060E070E0CE0101960E94B52CF70129
S1131220ED0DF11D6283F70182898F5F828B02507D
S11312301109BAF6D70152968C91833020F482E0DA
S1131240F701828B04C080E1D70152968C930F90F2
S11312500F900F90DF91CF911F910F91FF90EF901E
S1131260DF90BF90AF90089502960895FC018289A3
S1131270089521E932E0FC0131832083828593853E
S1131280009711F00C944C2B0895CF93DF93EC014D
S1131290F0DFCE010E94DE23DF91CF910895CF933A
S11312A0DF93FC0181E992E09183808387E190E000
S11312B0938382832FEF3FEF358324839783868341
S11312C0118610861386128615861486DF011E96F3
S11312D086E0ED0119928A95E9F7759684E0DF01BD
S11312E01D928A95E9F7DF91CF9108950F931F938B
S11312F0CF93DF93CDB7DEB76C970FB6F894DEBF0C
S11313000FBECDBF413009F5FC017583648327E12D
S113131030E037832683AC01425F5F4F26E0F8015B
S1131320DA0101900D922A95E1F7FC0105891689ED
S11313300115110551F0CE010196A4DECE010196EE
S1131340F8010995CE010196B7DD6C960FB6F894B5
S1131350DEBF0FBECDBFDF91CF911F910F910895D6
S11313608F929F92AF92BF92CF92DF92EF92FF92B1
S11313700F931F93CF93DF93CDB7DEB7C455D10935
S11313800FB6F894DEBF0FBECDBFDC011496ED910D
S1131390FC911597262F30E0E217F30709F092C06D
S11313A06C015C01BEE0AB0EB11CA501BF01CE0116
S11313B0C99668DE00E010E00F2EF7E68F2EF2E00B
S11313C09F2EF02D89E893E00E94D717081719077C
S11313D0C0F5B80189E893E00E94DD177C01DC01C7
S11313E0ED91FC910480F581E02D099583309842BC
S11313F029F59E8E8D8E82E1FE01FB96DE015F96BD
S113140001900D928A95E1F72F968EAD9FAD2F979F
S11314109AAB89AB86E0FE01E15BFF4FDE01D39618
S113142001900D928A95E1F740E050E0BE01635EC1
S11314307F4FC70185DACE014D963EDD0F5F1F4F0A
S1131440C1CFF6012789308D2115310521F187E6B9
S113145092E09A83898382E1FE01FB96DE01139672
S113146001900D928A95E1F72F968EAD9FAD2F973F
S11314709E8B8D8B86E0FE01E15BFF4FDE0157966C
S113148001900D928A95E1F7CE010196F901099533
S1131490CE01019611DD8FEF9FEFD60115969C9337
S11314A08E93149786E0F50111928A95E9F71996BF
S11314B01C921E9218971D961C921E921C97CE0188
S11314C0C996FADCCC5ADF4F0FB6F894DEBF0FBED4
S11314D0CDBFDF91CF911F910F91FF90EF90DF90DF
S11314E0CF90BF90AF909F908F90089521E0FC0122
S11314F084819581019609F420E0822F0895FC01EE
S1131500248135812617370759F4BA0146E050E0A3
S11315100E960E94AA2E21E0892B19F020E001C02A
S113152020E0822F0895CF93DF93FC0164817581BD
S11315306F3FFFEF7F0799F0EC0189E694E00E948A
S1131540971C892B71F48FEF9FEF9D838C832E96CC
S113155086E0FE0111928A95E9F781E003C080E0FC
S113156001C080E0DF91CF910895CF93DF93EC0128
S1131570FB01848195818F3FFFEF9F0739F0AB0119
S1131580425F5F4FBC01CE017DDD02C0CE0166DD4E
S1131590CE01DF91CF9108958F929F92AF92BF9227
S11315A0CF92DF92EF92FF920F931F93CF93DF932B
S11315B0CDB7DEB7FA01ADB6BEB6DC011496CD9058
S11315C0DC901597BFEFCB16DB06D9F18DB69EB62E
S11315D0DC011696ED90FC9017978DB79EB78E1987
S11315E09F090FB6F8949EBF0FBE8DBF0DB71EB7EF
S11315F00F5F1F4F8BE1ADB7BEB711968C93D80127
S113160012967C936E931197B3E0EB1AF1082E15A2
S11316103F0508F47901A701BF01C80103960E94A0
S1131620B72E97012D5F3F4F44E0B60189E694E061
S11316300E94091A0FB6F8949EBE0FBE8DBE81E0BB
S113164001C080E00FB6F894BEBE0FBEADBEDF9100
S1131650CF911F910F91FF90EF90DF90CF90BF90AB
S1131660AF909F908F9008956F927F928F929F92E8
S1131670AF92BF92CF92DF92EF92FF920F931F939C
S1131680CF93DF93CDB7DEB77C01CA018DB69EB68A
S1131690F701A480B580FFEFAF16BF0609F444C07C
S11316A06DB67EB6F701C680D7804DB75EB74C19CC
S11316B05D090FB6F8945EBF0FBE4DBF0DB71EB7E0
S11316C00F5F1F4F4DE1EDB7FEB74183F801728301
S11316D06183F3E0CF1AD1082C153D0508F46901A4
S11316E0A601BC01C80103960E94B72EF701148A13
S11316F096012D5F3F4F44E0B50189E694E00E94D6
S1131700091AF7011489111109C089E694E00E94AD
S1131710041AF70184819581019699F70FB6F8941C
S11317207EBE0FBE6DBE01C010E0812F0FB6F894CF
S11317309EBE0FBE8DBEDF91CF911F910F91FF9082
S1131740EF90DF90CF90BF90AF909F908F907F905D
S11317506F9008950F931F93CF93DF9300D000D021
S11317601F92CDB7DEB7FE01319685E0DF011D92F1
S11317708A95E9F781E089834A833C832B830D832F
S11317808F0125E044E089E694E00E94091A0F9055
S11317900F900F900F900F90DF91CF911F910F91A9
S11317A008950F931F93CF93DF9300D01F92CDB76B
S11317B0DEB7423031F004E020E030E042E0CADF3E
S11317C01AC0FC0142815381F90120813181421701
S11317D0530708F49A01FC013783268383E0898345
S11317E03B832A838E010F5F1F4F23E044E089E689
S11317F094E00E94091A0F900F900F90DF91CF91FF
S11318001F910F9108952F923F924F925F926F9282
S11318107F928F929F92AF92BF92CF92DF92EF927C
S1131820FF920F931F93CF93DF93CDB7DEB72A9721
S11318300FB6F894DEBF0FBECDBF1C0178876F834F
S11318403A8329832DB73EB73E832D833C832B8374
S1131850443081F0A981BA812D913C9104E044E0A7
S1131860C10178DFEB81FC810FB6F894FEBF0FBE97
S1131870EDBFDCC0D10116968D919C911797EDB701
S1131880FEB7E81BF90B0FB6F894FEBF0FBEEDBF11
S11318902DB73EB72F5F3F4F3A872987390185E03F
S11318A08183D90111961C92E981FA81C080D1808B
S11318B0F1E0CF1AD1086894AA24A1F8B12C512CD4
S11318C0412C89E893E00E94D717C816D90608F07E
S11318D077C0A981BA8112968D919C911397019733
S11318E08C159D0508F08DC06BC0C8010E94CA020A
S11318F0C816D90661F0C80168DA882E912CB2E0C6
S11319008B16910461F0452D82E0942D0BC06894F0
S1131910882481F8942C41E081E090E003C0452DB7
S113192081E090E0F3012181211101C08183D30181
S113193011962C9130E08217930709F041C0F3010E
S1131940EA0DFB1DD182C0827501B2E0EB0EF11CE1
S113195041110BC0D801ED91FC910480F581E02D7B
S1131960C80109958115994269F4C8012BDAA401CB
S1131970BC01C3018E0D9F1D0E94B72E5701A80CF8
S1131980B91C10C0D801ED91FC910480F581E02DC3
S1131990C8010995F301EE0DFF1D91838083B4E026
S11319A0AB0EB11CE2E08E0E911C8A0C9B1CD10183
S11319B016968D919C9117978815990508F081CFFB
S11319C0B2E0AB16B10459F4E981FA812081318186
S11319D00AE044E06F817885C101BCDE0AC0098554
S11319E01A852A2D44E06F81788589E694E00E9467
S11319F0091A2B813C810FB6F8943EBF0FBE2DBF50
S1131A0015C0B60189E893E00E94DD178C013FEF11
S1131A10C31AD30ADC01ED91FC910480F581E02D19
S1131A2009958330984209F066CF5FCFED81FE813E
S1131A300FB6F894FEBF0FBEEDBF2A960FB6F8940A
S1131A40DEBF0FBECDBFDF91CF911F910F91FF90ED
S1131A50EF90DF90CF90BF90AF909F908F907F904A
S1131A606F905F904F903F902F9008952F923F92E8
S1131A704F925F926F927F928F929F92AF92BF929A
S1131A80CF92DF92EF92FF920F931F93CF93DF9346
S1131A90CDB7DEB728970FB6F894DEBF0FBECDBF23
S1131AA04C017A83698369014DB65EB62DB63EB6A4
S1131AB0463060F4D9012D913C9104E047E04ADEC0
S1131AC00FB6F8945EBE0FBE4DBEA5C0FC01868164
S1131AD097812DB73EB7281B390B0FB6F8943EBF3C
S1131AE00FBE2DBF8DB79EB701969C838B833C019F
S1131AF087E0ADB7BEB711968C93F60184819581CA
S1131B008115984209F059C050E09A0126503109D4
S1131B103E832D83D6010D911C9101501109AA24F5
S1131B20A394B12CF6013696F887EF8389E893E005
S1131B300E94D7170817190708F03BC0D601129660
S1131B408D919C91139701978017910708F04FC0CE
S1131B5030C0C7013AD990E0ED81FE81E817F9075A
S1131B60D9F4C7012FD94D815E816F8178850E9498
S1131B70AA2E892B89F4C7014DD8F301EA0DFB1D68
S1131B8091838083C7014AD8F301EA0DFB1D938337
S1131B908283F4E0AF0EB11CD40116962D913C91D2
S1131BA01797C50104962817390718F00F5F1F4FC0
S1131BB0BDCFB1E0AB16B10451F4F60120813181FF
S1131BC00AE047E069817A81C401C4DD0AC00B815F
S1131BD01C812A2D44E069817A8189E694E00E947F
S1131BE0091A0FB6F8943EBE0FBE2DBE14C0B8013C
S1131BF089E893E00E94DD177C01DC01ED91FC9102
S1131C000480F581E02D0995F60124813581821740
S1131C10930711F69ECF0FB6F8945EBE0FBE4DBE6D
S1131C2028960FB6F894DEBF0FBECDBFDF91CF91DB
S1131C301F910F91FF90EF90DF90CF90BF90AF90E6
S1131C409F908F907F906F905F904F903F902F90D8
S1131C5008952F923F924F925F926F927F928F924C
S1131C609F92AF92BF92CF92DF92EF92FF920F9327
S1131C701F93CF93DF93CDB7DEB728970FB6F894B1
S1131C80DEBF0FBECDBF9A8389837E836D83390106
S1131C904DB65EB62DB63EB6463041F4D901149623
S1131CA08D919C9115979852029780F0F3012081B1
S1131CB0318100E140E16D817E8189819A814ADD33
S1131CC00FB6F8943EBE0FBE2DBEBAC0A981BA812C
S1131CD016968D919C911797EDB7FEB7E81BF90BFB
S1131CE00FB6F894FEBF0FBEEDBF2DB73EB72F5F02
S1131CF03F4F38872F83490181E18183D9011196B0
S1131D001C92F30100811181015011096894AA24E5
S1131D10A1F8B12C89E893E00E94D7170817190796
S1131D2008F059C0D30112968D919C911397019795
S1131D308017910708F06EC04EC0C70146D8C82E60
S1131D40B2E08B1721F0E4E1EB831C8203C0F6E0E0
S1131D50FB831C82D40111968C911197811103C0CD
S1131D60EB811196EC93D40111968C9190E0EB8168
S1131D70FC81E817F90779F5C7010E940A06F40106
S1131D80EA0DFB1D91838083C7010E940E06F401B6
S1131D90EA0DFB1D93838283F4E0AF0EB11CD12CBA
S1131DA0C70110D8A601BC01C4018A0D9B1D0E9465
S1131DB0B72EAC0CBD1C8B819C818A0D9B1DA98107
S1131DC0BA8116962D913C9117972817390718F068
S1131DD00F5F1F4F9FCFB2E0AB16B10459F4F3016C
S1131DE0208131810AE040E16D817E8189819A817F
S1131DF0B1DC0AC00F8118852A2D44E06D817E81F3
S1131E0089E694E00E94091A0FB6F8943EBE0FBE0C
S1131E102DBE16C0B80189E893E00E94DD177C014D
S1131E20D3011496CD90DC901597DC01ED91FC91D3
S1131E300480F581E02D0995C816D90649F67DCFB1
S1131E400FB6F8945EBE0FBE4DBE28960FB6F8943A
S1131E50DEBF0FBECDBFDF91CF911F910F91FF90D9
S1131E60EF90DF90CF90BF90AF909F908F907F9036
S1131E706F905F904F903F902F9008952F923F92D4
S1131E804F925F926F927F928F929F92AF92BF9286
S1131E90CF92DF92EF92FF920F931F93CF93DF9332
S1131EA0CDB7DEB76F970FB6F894DEBF0FBECDBFC8
S1131EB07C014B014D8FCDB6DEB6ADB6BEB64A3011
S1131EC041F4223009F427C104E020E030E042DC90
S1131ED00BC1243009F40EC104E020E030E04CE0F2
S1131EE039DC02C10AE093014D8DB401C70132DC33
S1131EF0FBC0D70116968D919C911797EDB7FEB74D
S1131F00E81BF90B0FB6F894FEBF0FBEEDBF2DB75B
S1131F103EB72F5F3F4F3F8F2E8F8BE08183B201FF
S1131F2089E893E00E94DD172C01DC01ED91FC911E
S1131F300480F581E02D09958115B8E29B0761F0D5
S1131F40212C312C1CC0232839F004E093014BE0F0
S1131F50B401C701FFDBC8C0C2010E94E506E82E38
S1131F60F12CC2010E94E206A701BC018E8D9F8D57
S1131F7001960E94B72E97012F5F3F4FA7C0833071
S1131F80E8E29E0709F072C0C2010E94C6028615EB
S1131F90970551F5232839F00BE09C014D8DB401D0
S1131FA0C701D8DBA1C0C2010E944502AE8DBF8D1E
S1131FB011968C93C2010E94CA02EE8DFF8D938309
S1131FC08283C2010E94E506E82EF12CC2010E9420
S1131FD0E206A701BC018E8D9F8D04960E94B72E48
S1131FE097012C5F3F4F72C0C2010E94450281FDE0
S1131FF007C002E093014D8DB401C701ABDB74C08F
S1132000C2010E9450022816390638F007E09301F5
S11320104D8DB401C7019EDB67C082199309D701B6
S113202016966D907C901797B1E06B1A710886151F
S1132030970508F43C01A701425F5F4FB401CE014C
S1132040019620D883012E8D3F8D2F5F3F4FA10134
S1132050BE016F5F7F4FC2010E94DE03CE01019675
S11320600E945C0793012F5F3F4F30C08115994256
S113207059F5C2010E943B052816390638F007E0DD
S113208093014D8DB401C70165DB2EC082199309FC
S1132090D7011696ED90FC901797B1E0EB1AF10872
S11320A08E159F0508F47C01C2010E943F05BC0106
S11320B0620D731DA7018E8D9F8D01960E94B72E10
S11320C097012F5F3F4F02C021E030E00E8D1F8D3E
S11320D044E0B40189E694E00E94091A0FB6F8942A
S11320E0BEBE0FBEADBE4EC00FB6F894BEBE0FBE90
S11320F0ADBE48C0F8016080718022803380230126
S1132100F1E04F1A510889E893E051D784159505F9
S113211008F4E8CE0FC0D8016D907C902301B1E0A3
S11321204B1A510889E893E042D78415950508F4C1
S1132130D9CEDFCEF701868197812DB73EB7281B14
S1132140390B0FB6F8943EBF0FBE2DBF8DB79EB7A7
S113215001969F8F8E8F8DE0ADB7BEB711968C938D
S1132160B20189E893E029D72C01DC01ED91FC91BF
S11321700480F581E02D09958115B8E29B0709F0EB
S1132180FECEE1CE0FB6F894DEBE0FBECDBE6F9686
S11321900FB6F894DEBF0FBECDBFDF91CF911F9174
S11321A00F91FF90EF90DF90CF90BF90AF909F90F2
S11321B08F907F906F905F904F903F902F900895F5
S11321C02F923F924F925F926F927F928F929F9243
S11321D0AF92BF92CF92DF92EF92FF920F931F9331
S11321E0CF93DF93CDB7DEB72E970FB6F894DEBF4B
S11321F00FBECDBF9C838B8378876F8339012DB647
S11322003EB6463061F0D9012D913C9104E048E09E
S1132210A1DA0FB6F8943EBE0FBE2DBE82C1EB818B
S1132220FC81868197812DB73EB7281B390B0FB6E9
S1132230F8943EBF0FBE2DBF8DB79EB701969A8707
S113224089874C0189E0ADB7BEB711968C93F40130
S11322501182D3010D911C910150110968944424F9
S113226041F8512CF3013496FE87ED873A82298296
S113227089E893E09CD60817190708F014C1D30124
S113228012968D919C91139701978017910708F0EE
S113229030C1A980BA800FC1D701ED91FC910480AF
S11322A0F581E02DC70109958330984209F05EC09D
S11322B0C7010E94CA02C816D90609F4F1C0C701B1
S11322C00E94E506B82EE2E08E1721F0F5E1FD83C9
S11322D01E8203C027E02D831E82D40111968C91A7
S11322E01197811103C0ED811196EC93D4011196DD
S11322F08C9190E0ED81FE81E817F90709F0D6C0D2
S11323009401240D351D3C872B87D901CD92DC9295
S1132310C7010E944502EB85FC858283F401E40D2C
S1132320F51D0E5F1F4F14830383F5E04F0E511C00
S11323300B2D10E0C7010E94E206A801BC01C401F4
S1132340840D951D0E94B72E400E511E8D819E81D5
S1132350840D951DAB81BC8116962D913C911797E8
S11323602817390708F4A5C086019AC0D701ED9152
S1132370FC910480F581E02DC701099582309942D2
S113238009F08EC0A980BA80E985FA85E40DF51DAF
S1132390D182C08282010E5F1F4FEB81FC81C68017
S11323A0D780C01AD10AC7010E943B05C816D906B6
S11323B048F4AB81BC811696CD90DC901797C01A77
S11323C0D10A04C0C7010E943B056C01C7010E94E9
S11323D03F05A601BC0189859A85800F911F0E9443
S11323E0B72E28014C0C5D1CC394C394E985FA856F
S11323F0C18261C0D701ED91FC910480F581E02D8B
S1132400C70109958330984209F04AC0C7010E9468
S1132410E506823009F044C0C7010E94E20642E0AA
S113242050E0BC018D859E850E94AA2E892BC1F5A2
S1132430A980BA80E985FA85E40DF51DD182C082B0
S113244082010E5F1F4FEB81FC81C680D780C01ACA
S1132450D10AC7010E945002C816D90648F4AB81BC
S1132460BC811696CD90DC901797C01AD10A04C08F
S1132470C7010E9450026C01C7010E944C02A601D0
S1132480BC0189859A85800F911F0E94B72E28016F
S11324904C0C5D1CC394C394E985FA85C1820BC0BE
S11324A00F5F1F4FE5CEA980BA8005C0A980BA800E
S11324B002C0A980BA80F2E04F16510459F4D30146
S11324C02D913C910AE048E06F8178858B819C8155
S11324D041D909C009851A85242D44E06F81788586
S11324E089E694E096D70FB6F894BEBE0FBEADBE93
S11324F018C0B80189E893E060D57C016801BFEF9A
S1132500CB1ADB0ADC01ED91FC910480F581E02D0E
S11325100995F301248135818217930709F06ACF65
S1132520BBCE0FB6F8943EBE0FBE2DBE2E960FB690
S1132530F894DEBF0FBECDBFDF91CF911F910F91F5
S1132540FF90EF90DF90CF90BF90AF909F908F90CF
S11325507F906F905F904F903F902F9008954F928F
S11325605F926F927F928F929F92AF92BF92CF921F
S1132570DF92EF92FF920F931F93CF93DF93CDB728
S1132580DEB7E8970FB6F894DEBF0FBECDBF4C019F
S11325905B01442E522EEDB6FEB621E0251548F01F
S11325A032E143130CC104E020E030E042E1D2D830
S11325B006C1D8016D907C906301B1E0CB1AD108BB
S11325C089E893E0F4D48C159D0550F4E2E14E12B1
S11325D0F6C00AE0930142E1B501C401BBD8EFC0E3
S11325E0B60189E893E0E9D46C01DC01ED91FC913A
S11325F00480F581E02D09958330984209F043C0A9
S1132600C6010E94CA026816790621F4E2E14E125C
S113261007C0C6C0C6010E94450283FF07C010C0A0
S1132620C6010E94450282FDC1C0C9C0F2E14F1239
S1132630C6C003E0930142E1B501C4018BD8BFC019
S1132640D40114968D919C911597A816B90609F09A
S113265082C0A401425F5F4FB501CE014D960E9436
S113266042085A945A94252D30E0A8014E5F5F4FDA
S1132670BE01635E7F4FC6010E944704CE014D96A2
S11326800E945C0768C0D601ED91FC910480F5813D
S1132690E02DC60109958115994209F052C0C60181
S11326A00E94E506823049F4C6010E94E206FC015C
S11326B0808191818230994251F022E142127FC09F
S11326C003E0930142E1B501C40144D878C0B301E9
S11326D06250710989E893E070D46C01DC01ED91DA
S11326E0FC910480F581E02D09958330984251F0E6
S11326F0E2E14E1264C003E0930142E1B501C4017A
S113270029D85DC0D40114968D919C911597A81673
S1132710B90609F5F80102811381A401425F5F4FF4
S1132720B501CE0101960E944208A801BE016F5F67
S11327307F4FC6010E94A004CE0101960E945C074F
S11327400AC0F2E14F123BC003E0930142E1B5013C
S1132750C40100D834C022E1421231C0CDB6DEB685
S1132760D40116968D919C911797EDB7FEB7E81B8F
S1132770F90B0FB6F894FEBF0FBEEDBF0DB71EB731
S11327800F5F1F4F83E1818321E044E0B50189E6B7
S113279094E03FD60FB6F894DEBE0FBECDBE0FC098
S11327A0C6010E94450283FD4BCF43CFD40114964A
S11327B08D919C9115978A159B0509F44ACF0FB604
S11327C0F894FEBE0FBEEDBEE8960FB6F894DEBFD9
S11327D00FBECDBFDF91CF911F910F91FF90EF906E
S11327E0DF90CF90BF90AF909F908F907F906F902D
S11327F05F904F9008952F923F924F925F926F9205
S11328007F928F929F92AF92BF92CF92DF92EF927C
S1132810FF920F931F93CF93DF9300D000D01F92AA
S1132820CDB7DEB77C014B0149831901CDB6DEB6C5
S1132830ADB6BEB6443038F404E020E030E046E102
S11328400E94AA0BD9C0D9016D907C901197129661
S11328504D905C90139783010150110989E893E02E
S1132860A6D38017910740F40AE0930146E1B4012E
S1132870C7010E94AA0BC0C0B80189E893E09DD3A8
S11328808C01DC01ED91FC910480F581E02D09952A
S11328908330984241F00BE0930146E1B401C70153
S11328A00E94AA0BA9C0C8010E94CA026816790630
S11328B041F00BE0930146E1B401C7010E94AA0B69
S11328C09BC0C8010E94450283FD08C003E0930138
S11328D046E1B401C7010E94AA0B8EC0F7018085AE
S11328E091850097D9F4C8010E9448029B838A838A
S11328F0BC01D7011A968D919C911B970E94D52BF0
S1132900F7019387828715861486718660864A81CB
S11329105B8160E070E00E94C02E0BC068167906EF
S113292041F00EE0930146E1B401C7010E94AA0BF5
S113293063C0D7011C968D919C911D97481659062A
S113294091F489818450E82FF0E0FB83EA83E40D5D
S1132950F51DFD83EC83C8010E9448022C813D8152
S11329608217930740F407E0930146E1B401C701DD
S11329700E94AA0B41C0D7011A968D919C911B9776
S1132980B1016C5F7F4F4A815B81840D951D0E946C
S1132990B72EF701848595852A813B81820F931F89
S11329A09587848786819781ADB7BEB7A81BB90B7D
S11329B00FB6F894BEBF0FBEADBFEDB7FEB73196EC
S11329C07F0187E111968C93B9810B2F10E0A80148
S11329D0B101CF0101960E94B72E98012F5F3F4F9E
S11329E0870144E0B40189E694E013D50FB6F89466
S11329F0BEBE0FBEADBE05C00FB6F894BEBE0FBEC0
S1132A00ADBE0FB6F894DEBE0FBECDBE0F900F90D4
S1132A100F900F900F90DF91CF911F910F91FF9026
S1132A20EF90DF90CF90BF90AF909F908F907F906A
S1132A306F905F904F903F902F9008954F925F92C8
S1132A406F927F928F929F92AF92BF92CF92DF92BA
S1132A50EF92FF920F931F93CF93DF93CDB7DEB71F
S1132A606C970FB6F894DEBF0FBECDBF7C016B012F
S1132A70ADB6BEB68DB69EB6413061F004E020E03E
S1132A8030E048E10E94AA0B0FB6F894BEBE0FBE18
S1132A90ADBE50C0FC01608571856115710539F1C9
S1132AA0F901808180FF23C06150710989E893E0B6
S1132AB084D28C01F701648175816C157D05B9F4AC
S1132AC04484558462847384A701425F5F4FCE01BE
S1132AD001960E9442089201A301BE016F5F7F4FDD
S1132AE0C8010E944704CE0101960E945C07F701C9
S1132AF01186108615861486868197812DB73EB778
S1132B00281B390B0FB6F8943EBF0FBE2DBF0DB76F
S1132B101EB70F5F1F4F89E1EDB7FEB7818321E038
S1132B2044E0B60189E694E074D40FB6F8949EBEEE
S1132B300FBE8DBE0FB6F894BEBE0FBEADBE6C9672
S1132B400FB6F894DEBF0FBECDBFDF91CF911F91BA
S1132B500F91FF90EF90DF90CF90BF90AF909F9038
S1132B608F907F906F905F904F900895CF92DF92F7
S1132B70EF92FF920F931F93A22FB32F5D914150B9
S1132B80C52ED12CF6013297E135F10550F5EA5BFB
S1132B90FF4F0C94922A9D010E94D10B28C09D01E5
S1132BA00E94030C24C09D010E94360D20C09D018B
S1132BB007DB1DC09D014DD81AC08D01242F452F60
S1132BC05DD915C08D01242F452FC9DC10C09D018E
S1132BD012DE0DC09D0132DF0AC021E0FC01248B0E
S1132BE006C006E020E030E0452F0E94AA0B1F91AA
S1132BF00F91FF90EF90DF90CF9008958CE593E0D4
S1132C000C944F0908958CE593E00C9439090895C8
S1132C1008950C94DE230895FC0189E992E09183E0
S1132C208083128214821382168215821086178280
S1132C301286118680EA90E09487838781E08587F5
S1132C4017861686118A108A0895FC0182810895D8
S1132C506F927F928F92AF92CF92DF92EF92FF9218
S1132C600F931F93CF93DF93CDB7DEB7C755D10929
S1132C700FB6F894DEBF0FBECDBF3C01FE01319606
S1132C8086E0DF011D928A95E9F7F30185858111BC
S1132C9006C081859285892B21F423E003C020E0BE
S1132CA001C022E0D30112961C9212971B966D91DB
S1132CB07C911C97812C0F2EF7E0AF2EF02DFE0196
S1132CC031966F01E12C00E0AB0189E694E04DD52B
S1132CD07C01892B09F0D7C082E08F8381E088874B
S1132CE086E08987D30113966D917C9114976115C1
S1132CF0710529F1CE018B5B9F4F0E94C908CE015B
S1132D008B5B9F4F0E943609082F81E0800F8A87D2
S1132D10802F90E0039714F482E001C086E08B8753
S1132D20CE018B5B9F4F0E943409402F50E0BC01C1
S1132D30CE010C960E94B72E65E0600F1BC0F30114
S1132D40658176816115710591F007811085011502
S1132D50110579F081E0800F8A878FEF8B87A801B6
S1132D60CE010C960E94B72E65E0600F03C063E0AD
S1132D7001C063E0D3011E968D919C911F9700972B
S1132D80F1F15096CD90DC9051971C141D04BCF5C4
S1132D90262F30E0A6014C5F5F4F241735077CF1E6
S1132DA0E7E0F0E0EC0FFD1FE20FF31F43E04C0DF2
S1132DB0408321E0260FE7E0F0E0EC0FFD1FE20F77
S1132DC0F11D26E1208322E0260FE7E0F0E0EC0F7E
S1132DD0FD1FE20FF11D52962D913C9153973183C3
S1132DE0208304E0060FA601BC0187E090E08C0F6D
S1132DF09D1F800F911D0E94B72E602F6C0DAE0198
S1132E00495F5F4F89E694E0E7D46C01892B09F0B0
S1132E103EC0F3016185728561157105E9F0FB011E
S1132E2001900020E9F731978F01061B170B0E3133
S1132E3011052CF088E08FA30DE110E002C089E0B9
S1132E408FA381E0800F8EA3A801CE0188960E94F3
S1132E50B72E62E0600F01C060E0AE014A5D5F4FD3
S1132E6089E694E0ECD47C01892B81F461E089E665
S1132E7094E018D5892B59F4D30112961C92EE24B0
S1132E80E394F12C04C0E12CF12C01C07601C701BC
S1132E90C95ADF4F0FB6F894DEBF0FBECDBFDF9126
S1132EA0CF911F910F91FF90EF90DF90CF90AF9053
S1132EB08F907F906F900895FC01738B628B57877E
S1132EC04687318B208B089585E793E0A5CE08953E
S1132ED06F927F928F929F92AF92BF92CF92DF9226
S1132EE0EF92FF920F93CF93DF93EC0182EC92E089
S1132EF0FE01819391937F016DE972E0CF010E94FD
S1132F00F5054E01F3E28F0E911C00E024E130E060
S1132F1042E062EA72E0C4010E9413035E0185E5A7
S1132F20A80EB11C22E030E042E067EA72E0C5017D
S1132F300E9413036E01E7E8CE0ED11C6CEA72E026
S1132F40C6010E94F5053E01F8EA6F0E711C24E0EB
S1132F5030E040E261EB72E0C3010E941303C65209
S1132F60DF4F198218821B821A821D821C82C701BC
S1132F700E94E806C6010E94E806B401C7010E9447
S1132F803006B501C7010E943006B301C6010E9494
S1132F903006DF91CF910F91FF90EF90DF90CF90AB
S1132FA0BF90AF909F908F907F906F9008958652BE
S1132FB09F4FFC01808191810895FC01E652FF4FEF
S1132FC0208131816217730790F40280F381E02D30
S1132FD06115710549F080E090E00280F381E02DF5
S1132FE0019668177907C9F780819181089580E077
S1132FF090E008958F929F92AF92BF92CF92DF920A
S1133000EF92FF920F931F93CF93DF93FC01E6524D
S1133010FF4F20813181232BB9F15B017C0100E05A
S113302010E0812C912C6F01B801C701C6DFEC01BF
S1133030E881F9810480F581E02D09958115984294
S113304021F0CA15DB0511F409C04E010F5F1F4FB3
S1133050F601808191810817190730F381149104D6
S1133060B1F0C4010E94E506823039F4C4010E9423
S1133070E206FC01808191810CC0C4010E94E20639
S1133080FC018285938505C080E090E002C080E069
S113309090E0DF91CF911F910F91FF90EF90DF901F
S11330A0CF90BF90AF909F908F900895EF92FF9232
S11330B00F931F93CF93DF937C01FC018281938153
S11330C020813181232B81F0C0E0D0E0FC0102811A
S11330D013810E94DE232196802F912FF7012081F6
S11330E03181C217D30790F3F70111821082138242
S11330F0128215821482DF91CF911F910F91FF905C
S1133100EF900895CF92DF92EF92FF920F931F9367
S1133110CF93DF937C01FC01E652FF4F80819181C4
S1133120892BF1F0C0E0D0E06F01BE01C70145DF9B
S11331308C010E94F006181619065CF001151105A1
S113314041F0D801ED91FC910280F381E02DC8019A
S113315009952196F60180819181C817D90728F332
S1133160C70186529F4FA2DFDF91CF911F910F912C
S1133170FF90EF90DF90CF90089589E893E0A8CE78
S11331800895CF93DF93EC0182EC92E099838883D6
S1133190CE01B8DFCE0186529F4F88DFCE0188551D
S11331A09F4F0E948D03CE0189579F4F0E94840632
S11331B0CE018B5A9F4F0E948D03CE0183960E94AD
S11331C08D03CE0102960E948406DF91CF9108956B
S11331D0CF93DF93EC01D5DFCE010E94DE23DF9194
S11331E0CF91089589E893E0CCCF089508950C9485
S11331F0DE2308954115510561F0FC01E25FFE4FA5
S11332002081622F70E04617570718F4241B20838F
S11332100895FC01E25FFE4F108208956F927F9241
S11332208F92AF92BF92CF92DF92EF92FF920F9361
S11332301F93CF93DF937C01EA018881853099F451
S11332404D8150E06B818CE593E00E94B0094D8183
S113325050E06B817C8180E895E053D461E089E69D
S113326094E020D353C08E30A9F48B819C81F70164
S1133270EA5FFE4F9183808332968D8190E0918343
S11332808083329689818450808331962696D183B7
S1133290C0833CC0833181F40A8123960023B1F1B9
S11332A010E04A815B8168817981C701A3DF24969C
S11332B01F5F0113F6CF2AC08E3341F58A81813016
S11332C029F58B81811122C03A0188E0680E711CB6
S11332D0AA88BB88C888D988EE84FF846C817D81E4
S11332E08C8883012F814E818CE593E00E947609BE
S11332F0AA88BB88C888D988EE84FF846C817D81C4
S11333008C882F814E8180E895E0B1D3DF91CF91F5
S11333101F910F91FF90EF90DF90CF90BF90AF90EF
S11333208F907F906F900895EF92FF920F931F9369
S1133330CF93DF93EC01411551056105710559F0F7
S11333408091E4029091E502DC01ED91FC9104800E
S1133350F581E02D09950091E4021091E5027E01CA
S1133360B5E0EB0EF11CD801ED91FC910680F781DC
S1133370E02DC8010995892B09F43FC0D801ED91CE
S1133380FC910284F385E02DC80109956A817B8153
S11333909B012F5F3F4F3B832A83FE01E60FF71FFC
S11333A084838C818230A1F426303105E4F288854F
S11333B090E0982F88274F81840F911D0596281738
S11333C039078CF21B821A82A701CE01ADD0CBCF74
S11333D0843081F42430310534F28E8190E00396F8
S11333E0281739070CF4BFCF1B821A82A701CE011C
S11333F015DFB9CF1B821A82B6CFDF91CF911F910F
S11334000F91FF90EF90089540E050E0BA018CCF07
S113341008953F924F925F926F927F928F929F9204
S1133420AF92BF92CF92DF92EF92FF920F931F93CE
S1133430CF93DF93CDB7DEB77C013B01442E522EF0
S11334408DB69EB6FC01E25FFE4F308031978081DD
S1133450381670F0570182EFA81A8EEFB80A6F0180
S1133460C701D2DFD5013C90F60180813816C0F740
S1133470452D50E05A01F9E0AF0EB11C8DB79EB74F
S11334808A199B090FB6F8949EBF0FBE8DBFADB7C6
S1133490BEB711966D0182E0EDB7FEB78183129637
S11334A07C926E92119784E0850D90E014969C9323
S11334B08E93139716965C934E931597512C1896EA
S11334C05C924E9217978DB79EB70A96B8010E94E8
S11334D0B72EF701E25FFE4F339430828091E4020D
S11334E09091E502DC01ED91FC910484F585E02DD9
S11334F0A501B601099580E090E00FB6F8949EBE50
S11335000FBE8DBEDF91CF911F910F91FF90EF9071
S1133510DF90CF90BF90AF909F908F907F906F90EF
S11335205F904F903F9008950F931F93CF93DF9335
S1133530CDB7DEB72A970FB6F894DEBF0FBECDBF66
S1133540FA01668177816430710559F49C01235F27
S11335503F4F608171817F7044818CE593E006DB8D
S113356028C06530710559F49C01235F3F4F608189
S113357071817F70448180E895E02CD31AC08E015C
S11335800F5F1F4F2AE0D8011D922A95E9F721E029
S1133590298326E030E03C832B8322E030E03E8325
S11335A02D8378876F83608171817F702AE045E085
S11335B030DF2A960FB6F894DEBF0FBECDBFDF9181
S11335C0CF911F910F9108954F925F926F927F92C6
S11335D0AF92BF92CF92DF92EF92FF920F931F931D
S11335E0CF93DF93CDB7DEB78C017B01ADB6BEB60A
S11335F050E03A0164E0660E711CADB7BEB7A6197F
S1133600B7090FB6F894BEBF0FBEADBFEDB7FEB796
S113361031966F0191E011969C93F282E18243838B
S11336208DB79EB70596B9010E94B72E8091E4022A
S11336309091E502DC01ED91FC910484F585E02D87
S1133640A301B6010995F801EA5FFE4F8FEF9FEFE2
S11336509183808332969183808385EA96E0A9D70B
S11336606801BAEFCB1ABEEFDB0A2B013C01E8EE8E
S11336704E0EE3E05E1E611C711CD6018D919C917F
S1133680E816F90659F085EA96E093D764157505AE
S11336908605970518F4C801B7DEEFCFF801E85F97
S11336A0FE4F808191810FB6F894BEBE0FBEADBEB1
S11336B0DF91CF911F910F91FF90EF90DF90CF900A
S11336C0BF90AF907F906F905F904F9008950F934D
S11336D01F93CF93DF93EC018B0120E030E040E0B7
S11336E069E070E171DF009751F4C55FDE4FE88156
S11336F0F98126E0D80101900D922A95E1F7DF9136
S1133700CF911F910F9108950F931F93CF93DF9340
S113371000D0CDB7DEB78C017A8369839E012F5F19
S11337203F4F42E065E074E14FDF892B91F4F801EB
S1133730E55FFE4F0190F081E02D20813181898188
S11337409A812817390741F48281082E000C990BBD
S113375005C08FE790E002C08FE790E00F900F90D4
S1133760DF91CF911F910F9108958F92AF92CF92D5
S1133770DF92EF920F93CF93DF93CDB7DEB72F97FE
S11337800FB6F894DEBF0FBECDBF7A8369835C8326
S11337904B832D830E83EF8226E0F601DE0118961B
S11337A001900D922A95E1F7AE868F869E012F5FD8
S11337B03F4F4FE066E070E207DF2F960FB6F894B4
S11337C0DEBF0FBECDBFDF91CF910F91EF90DF90A1
S11337D0CF90AF908F900895EF92FF920F931F9325
S11337E0CF93DF93CDB7DEB7A0970FB6F894DEBFC3
S11337F00FBECDBF7C01CA018E010F5F1F4F20E2B7
S1133800F80111922A95E9F76983462F50E0BC012B
S1133810CE0102960E94B72E980140E268E070E261
S1133820C701D2DEA0960FB6F894DEBF0FBECDBF9F
S1133830DF91CF911F910F91FF90EF900895EF9238
S1133840FF920F931F93CF93DF93CDB7DEB7A0976B
S11338500FB6F894DEBF0FBECDBF7C01CA018E0146
S11338600F5F1F4F20E2F80111922A95E9F769834F
S1133870462F50E0BC01CE0102960E94B72E98015B
S113388040E269E070E2C7019FDEA0960FB6F894AB
S1133890DEBF0FBECDBFDF91CF911F910F91FF907F
S11338A0EF900895CF93DF931F92CDB7DEB769836E
S11338B09E012F5F3F4F41E06AE070E285DE0F908A
S11338C0DF91CF910895EF92FF920F931F93CF93BF
S11338D0DF93CDB7DEB72E970FB6F894DEBF0FBED9
S11338E0CDBF7A8369835C834B833E832D831887A2
S11338F00F83FA86E98624E030E03C872B8726E0B4
S113390030E03E872D879E012F5F3F4F4EE063E1FD
S113391070E25ADE2E960FB6F894DEBF0FBECDBF0E
S1133920DF91CF911F910F91FF90EF900895CF9366
S1133930DF9300D01F92CDB7DEB723E12B837A83C8
S113394069839E012F5F3F4F43E066E074E03CDEF5
S11339500F900F900F90DF91CF910895E9E6F4E076
S11339608AEC92E09183808313821282109277050D
S113397008950895FC01448155816681778182818F
S113398093814DD181E090E00895FC01828193817F
S1133990FDC208958F929F92AF92BF92CF92DF9211
S11339A0EF92FF92CF93DF93EC014A015B0185EA2A
S11339B096E0FFD56B017C0185EA96E0FAD5DC013F
S11339C0CB018C199D09AE09BF0988159905AA0573
S11339D0BB0548F4E881F9810680F781E02DCE012A
S11339E00995892B49F3DF91CF91FF90EF90DF90F8
S11339F0CF90BF90AF909F908F900895FC018281EB
S1133A00938132C10895FC01828193813FC108955D
S1133A10FC018281938147C108950F931F93CF9333
S1133A20DF93EC018A819B8197D18C018A819B81F0
S1133A3085D2C801DF91CF911F910F910895BEC621
S1133A400895E8E7F5E082ED92E09183808386E8CB
S1133A5095E09383828380E092ECA1E0B0E08483DC
S1133A609583A683B78308950895A8C60895EF9211
S1133A70FF920F931F93CF93DF93CDB7DEB72C97AD
S1133A800FB6F894DEBF0FBECDBF413069F5FC011F
S1133A90228133812115310539F184819581009783
S1133AA019F1E216F30618F08E159F05E8F48E015D
S1133AB00F5F1F4F4CE0F80111924A95E9F742E17C
S1133AC0498341E04A8348E050E05C834B8348ECFF
S1133AD050E05C874B873E832D8398878F832CE04F
S1133AE045E089E694E095DC2C960FB6F894DEBFA9
S1133AF00FBECDBFDF91CF911F910F91FF90EF903B
S1133B0008950895AF92BF92CF92DF92EF92FF9201
S1133B100F931F93CF93DF9300D000D000D0CDB785
S1133B20DEB7283008F445C0FE01319626E0DF01F7
S1133B301D922A95E9F723E1298322E030E03C83B2
S1133B402B834A83FC012281338121153105B1F095
S1133B5084819581009791F0D8014D915C911197E2
S1133B604217530738F012962D913C911397821700
S1133B70930720F481E090E09E838D8368015B01CC
S1133B808E010F5F1F4F26E045E089E694E041DC9B
S1133B908D819E81892B69F4F601E680F78004818A
S1133BA015812281338140815181B50189E694E0F8
S1133BB08ADE26960FB6F894DEBF0FBECDBFDF9126
S1133BC0CF911F910F91FF90EF90DF90CF90BF9016
S1133BD0AF9008950F931F93443098F0F901A28198
S1133BE0B38150E0FD0134964E175F0751F4F9019B
S1133BF04081423131F489010C5F1F4F2A2F4181EA
S1133C0081DF1F910F910895E0E8F5E08AEE92E0DC
S1133C109183808313821282158214820895CB01CA
S1133C20BA01D5D720E030E040E851E40E9475267F
S1133C309B01AC0160E074E284E79BE434D720E0AC
S1133C4030E040E85FE3CAD620E030E040E05FE3E4
S1133C50C6D691D77093900069B9549A539A579ADB
S1133C60559A81E090E00895FC019081892F90E0BD
S1133C70805C9F4F2181821B91098F7390789923D7
S1133C8024F40197806C9F6F01960895FC012181B3
S1133C903081321729F0E20FF11D828190E00895FE
S1133CA08FEF9FEF0895FC01818190819817C9F0EF
S1133CB0DF01A80FB11D12968C919FB7F894218152
S1133CC030E02F5F3F4F2F733078332334F421508B
S1133CD03109206C3F6F2F5F3F4F21839FBF90E0DE
S1133CE008958FEF9FEF0895FC01EE5BFF4F208155
S1133CF030E02F5F3F4F2F733078332334F421505B
S1133D003109206C3F6F2F5F3F4FFC01ED5BFF4F8C
S1133D103081231304C0559A30812317E1F3DC0169
S1133D20AE5BBF4F2C91820F911DFC01EC5BFF4FEA
S1133D3060832FB7F8948C9190E001968F739078FC
S1133D40992324F40197806C9F6F01968C93559A64
S1133D502FBF81E090E00895CF92DF92EF92FF921F
S1133D600F931F93CF93DF934115510591F07A017F
S1133D706C01062F172FC0E0D0E0F80161918F018C
S1133D80C601B2DF892B39F02196EC16FD06A9F79E
S1133D9002C0C0E0D0E0CE01DF91CF911F910F911E
S1133DA0FF90EF90DF90CF9008956115710551F069
S1133DB0FB0101900020E9F73197AF01461B570B37
S1133DC0CBCF089580E090E00895FC019CB1408140
S1133DD050E09A012F5F3F4F2F733078332334F430
S1133DE021503109206C3F6F2F5F3F4F8181821733
S1133DF031F0DF01A40FB51F12969C932083089520
S1133E001F920F920FB60F9211240BB60F922F939D
S1133E103F934F935F936F937F938F939F93AF934E
S1133E20BF93EF93FF9386E895E0CFDFFF91EF9187
S1133E30BF91AF919F918F917F916F915F914F91BE
S1133E403F912F910F900BBE0F900FBE0F901F90BC
S1133E501895FC01ED5BFF4F2081319730812313CE
S1133E6002C05598089530E0FC01E20FF31FEC5BAB
S1133E70FF4F4081FC01ED5BFF4F2F5F3F4F2F73DE
S1133E803078332334F421503109206C3F6F2F5F95
S1133E903F4F20834CB908951F920F920FB60F9293
S1133EA011240BB60F922F933F934F935F936F930D
S1133EB07F938F939F93AF93BF93EF93FF9386E882
S1133EC095E0C7DFFF91EF91BF91AF919F918F91E3
S1133ED07F916F915F914F913F912F910F900BBE06
S1133EE00F900FBE0F901F9018951F920F920FB650
S1133EF00F9211240BB60F922F933F934F935F931E
S1133F006F937F938F939F93AF93BF93EF93FF939D
S1133F1086E895E09EDFFF91EF91BF91AF919F916D
S1133F208F917F916F915F914F913F912F910F905E
S1133F300BBE0F900FBE0F901F901895EF92FF923B
S1133F400F931F93CF93DF937C01CAE9D0E00BE971
S1133F5010E0888185FD04C0F801808186FD0FC0D2
S1133F600FB607FCF6CF888185FFF3CF03C0C701E6
S1133F7070DFEFCFF801808185FFEBCFF8CFDF91C1
S1133F80CF911F910F91FF90EF900895D7DF549830
S1133F905398579855980895E6E8F5E010821182F1
S1133FA01092C8051092C9050895CB01BA010FD625
S1133FB020E030E040E851E498D69B01AC0160E099
S1133FC074E284E79BE46FD520E030E040E85FE3EF
S1133FD005D520E030E040E05FE301D5CCD5709317
S1133FE0980060939900EAE9F0E080818061808321
S1133FF08081886080838081806880838081806202
S1134000808381E090E00895FC018181908189178B
S1134010C9F0DF01A80FB11D12968C919FB7F894D7
S1134020218130E02F5F3F4F2F733078332334F4F6
S113403021503109206C3F6F2F5F3F4F21839FBF79
S113404090E008958FEF9FEF0895FC01EE5BFF4F22
S1134050208130E02F5F3F4F2F733078332334F4C7
S113406021503109206C3F6F2F5F3F4F322FFC01ED
S1134070ED5BFF4F208132130BC0EAE9F0E0DC0175
S1134080AD5BBF4F2081206220832C913217D1F386
S1134090DC01AE5BBF4F2C91820F911DFC01EC5BE8
S11340A0FF4F60832FB7F8948C9190E001968F7343
S11340B09078992324F40197806C9F6F01968C93D8
S11340C0EAE9F0E08081806280832FBF81E090E0A4
S11340D00895CF92DF92EF92FF920F931F93CF93A5
S11340E0DF934115510591F07A016C01062F172FCA
S11340F0C0E0D0E0F80161918F01C601A6DF892BF1
S113410039F02196EC16FD06A9F702C0C0E0D0E014
S1134110CE01DF91CF911F910F91FF90EF90DF902F
S1134120CF9008956115710551F0FB0101900020B5
S1134130E9F73197AF01461B570BCBCF089580E0C9
S113414090E00895CF93FC01C0919C00408150E021
S11341509A012F5F3F4F2F733078332334F421506B
S11341603109206C3F6F2F5F3F4F8181821731F0FF
S1134170DF01A40FB51F1296CC9320836C2F8AE025
S113418096E063DF80912C03882321F06C2F86E86E
S113419095E0AADDCF9108951F920F920FB60F926A
S11341A011240BB60F922F933F934F935F936F930A
S11341B07F938F939F93AF93BF93EF93FF938AE083
S11341C096E0C0DFFF91EF91BF91AF919F918F91E6
S11341D07F916F915F914F913F912F910F900BBE03
S11341E00F900FBE0F901F901895FC01ED5BFF4FD1
S11341F0208131973081231306C0EAE9F0E0808101
S11342008F7D8083089530E0FC01E20FF31FEC5BA7
S1134210FF4F4081FC01ED5BFF4F2F5F3F4F2F733A
S11342203078332334F421503109206C3F6F2F5FF1
S11342303F4F208340939C0008951F920F920FB626
S11342400F9211240BB60F922F933F934F935F93CA
S11342506F937F938F939F93AF93BF93EF93FF934A
S11342608AE096E0C2DFFF91EF91BF91AF919F91F9
S11342708F917F916F915F914F913F912F910F900B
S11342800BBE0F900FBE0F901F9018951F920F92A8
S11342900FB60F9211240BB60F922F933F934F93A7
S11342A05F936F937F938F939F93AF93BF93EF939A
S11342B0FF938AE096E099DFFF91EF91BF91AF9170
S11342C09F918F917F916F915F914F913F912F912A
S11342D00F900BBE0F900FBE0F901F901895EAE041
S11342E0F6E01082118210924C0610924D06089549
S11342F0FC011082128211828FEF93E0A0E0B0E003
S113430083839483A583B68388E893E1A0E0B0E037
S113431087839087A187B2870895329A319A309A19
S11343203E9A379A0895FC0197B1907F97B997B157
S11343308081892B87B9369A3699FECF84B195B19D
S11343400895AF92BF92CF92DF92EF92FF920F93B4
S11343501F93FC01E380F4800581168180E090E0E6
S113436022852F9321852F9320852F9327812F93A7
S1134370A12CB12C650120E030E0A90121D20F90DD
S11343800F900F900F901F910F91FF90EF90DF907F
S1134390CF90BF90AF900895CF93DF93EC01C3DF2C
S11343A0BC01CE01CEDFC2969C0140E050E068ED36
S11343B079E580E090E00E94702AC901DF91CF91F5
S11343C00895CF93DF93EC0164B175B17C876B875B
S11343D0B8DFC2969C0140E050E068ED79E580E0EA
S11343E090E00E94702A3A83298380912C038111E2
S11343F00AC080912D03882329F06EEE72E08AE0D2
S113440096E090DE369ADF91CF9108951F920F9235
S11344100FB60F9211240BB60F922F933F934F9325
S11344205F936F937F938F939F93AF93BF93EF9318
S1134430FF938EE896E0C5DFFF91EF91BF91AF91B6
S11344409F918F917F916F915F914F913F912F91A8
S11344500F900BBE0F900FBE0F901F9018958EE813
S113446096E046CF0895FC011082118212821382D5
S11344701482158216821782118610860895EAE640
S1134480F0E080818260808380818160808389B74D
S1134490816089BF81E090E00895FC018085918569
S11344A00895CF92DF92EF92FF92CF93DF93FC01B6
S11344B040815181628173814F5F5F4F6F4F7F4FA6
S11344C0408351836283738320912C03211129C07B
S11344D0EC0180912D03882329F060EF72E08AE0DB
S11344E096E020DE85EA96E064D06B017C018C8145
S11344F09D81AE81BF81C816D906EA06FB0688F005
S1134500A7019601281B390B4A0B5B0B60ED77E082
S113451080E090E0E5D739872887CC82DD82EE827F
S1134520FF82DF91CF91FF90EF90DF90CF900895BD
S11345301F920F920FB60F9211240BB60F922F9366
S11345403F934F935F936F937F938F939F93AF9317
S1134550BF93EF93FF938BE996E0A3DFFF91EF9175
S1134560BF91AF919F918F917F916F915F914F9187
S11345703F912F910F900BBE0F900FBE0F901F9085
S113458018958BE996E06FCF0895FC0171876087D9
S113459083B7846083BF83B7886083BF12BE89EF0B
S11345A081BF87B7826087BF089587B78D7F87BF34
S11345B00895FC0160817181828193810895CF9374
S11345C0DF93CDB7DEB72A970FB6F894DEBF0FBEE0
S11345D0CDBFFC0120853185C90101969187808773
S11345E0BE016F5F7F4F6BD162EF72E08AE096E0AD
S11345F099DDBE016F5F7F4F8AE096E093DD62EE46
S113460071E08AE096E08EDD2A960FB6F894DEBF5C
S11346100FBECDBFDF91CF910895CF93DF93CDB778
S1134620DEB72A970FB6F894DEBF0FBECDBFFC01EC
S1134630208531852230310530F460E073E08AE072
S113464096E070DD1AC021503109FC0131872087C2
S1134650BE016F5F7F4FC90132D162EF72E08AE021
S113466096E060DDBE016F5F7F4F8AE096E05ADD21
S113467062EE71E08AE096E055DD2A960FB6F89472
S1134680DEBF0FBECDBFDF91CF9108950F931F936F
S1134690CF93DF93CDB7DEB72A970FB6F894DEBF7A
S11346A00FBECDBFFC0140815181628173814F5F98
S11346B05F4F6F4F7F4F4083518362837383209199
S11346C02C03211136C08C0180912D03882329F0FD
S11346D062E273E08AE096E025DDF8012085318509
S11346E040E050E06081718182819381F9D6672B2B
S11346F0682B692BF1F48BE996E0CFDEAE014F5FB6
S11347005F4F682F86E598D0BE016F5F7F4F86E8C4
S113471095E04BDB8EE896E03FDEAE014F5F5F4FE6
S1134720682F84E489D0BE016F5F7F4F86E895E0EF
S11347303CDB2A960FB6F894DEBF0FBECDBFDF91E7
S1134740CF911F910F9108951F920F920FB60F9260
S113475011240BB60F922F933F934F935F936F9354
S11347607F938F939F93AF93BF93EF93FF9385EAC8
S113477096E08CDFFF91EF91BF91AF919F918F9164
S11347807F916F915F914F913F912F910F900BBE4D
S11347900F900FBE0F901F901895E5EAF6E0108277
S11347A0118212821382148215821682178208954E
S11347B085EA96E0FACE0895D7C608956DC70895A0
S11347C04F925F926F927F92AF92BF92CF92DF929D
S11347D0EF92FF920F931F93CF93DF93CDB7DEB782
S11347E029013A019B01AC012419350946095709ED
S11347F089899A89AB89BC89BC01CD016A197B0975
S11348008C099D095ED6A80197012419350946092A
S1134810570966D6C9018A0D9B1DDF91CF911F915F
S11348200F91FF90EF90DF90CF90BF90AF907F906B
S11348306F905F904F900895CF93DF93EA01E62F36
S1134840F0E088839F013695279536952795ABE749
S1134850B4E171D69695879520E3280F298344E621
S1134860489F9001499F300D1124CF01821B930B67
S11348709C01ADECBCEC5FD6969587959695879593
S113488096958795805D8A839F0155D696958795E1
S113489096958795969587959C01220F331F880FCF
S11348A0991F880F991F880F991F820F931FE81B68
S11348B0F90BE05DEB831C82DF91CF910895AC018D
S11348C0FB019C01329522952F7023273F702327EB
S11348D0A7E4B3E030D696958795969587959695F7
S11348E0879520E3280F208360E177E2869F90017B
S11348F0879F300D969F300D1124CA01821B930BA4
S11349009C01369527953695279536952795A5ECE0
S1134910B0E211D6929582958F7089279F7089276E
S1134920805D81839A01369527953695279536952E
S1134930279501D6929582958F7089279F70892734
S113494068EE73E0869F9001879F300D969F300D2F
S11349501124CA01821B930B9C0136952795369529
S11349602795ABE7B4E1E7D596958795805D82837B
S11349709A013695279536952795DDD59695879591
S113498064E6689F9001699F300D1124CA01821B5F
S1134990930B9C01ADECBCECCED596958795969582
S11349A0879596958795805D83839A01C4D596955E
S11349B0879596958795969587959C01220F331F29
S11349C0880F991F880F991F880F991F820F931FB3
S11349D0481B590B405D4483158208955058BB27EA
S11349E0AA270ED048C139D130F03ED120F031F49D
S11349F09F3F11F41EF42EC10EF4E095E7FB24C191
S1134A00E92F4AD180F3BA17620773078407950721
S1134A1018F071F49EF562C10EF4E0950B2EBA2FD6
S1134A20A02D0B01B90190010C01CA01A0011124B0
S1134A30FF27591B99F0593F50F4503E68F11A165C
S1134A40F040A22F232F342F4427585FF3CF4695ED
S1134A5037952795A795F0405395C9F77EF41F160F
S1134A60BA0B620B730B840BBAF09150A1F0FF0FD9
S1134A70BB1F661F771F881FC2F70EC0BA0F621FC5
S1134A80731F841F48F4879577956795B795F795B5
S1134A909E3F08F0B3CF9395880F08F09927EE0F47
S1134AA09795879508950CD0E6C0DED040F0D5D018
S1134AB030F021F45F3F19F0C7C0511110C1CAC0D2
S1134AC0EBD098F39923C9F35523B1F3951B550BF8
S1134AD0BB27AA2762177307840738F09F5F5F4FCD
S1134AE0220F331F441FAA1FA9F333D00E2E3AF00E
S1134AF0E0E830D091505040E695001CCAF729D028
S1134B00FE2F27D0660F771F881FBB1F2617370776
S1134B104807AB07B0E809F0BB0B802DBF01FF27A6
S1134B2093585F4F2AF09E3F510568F08DC0D7C05F
S1134B305F3FECF3983EDCF3869577956795B795E0
S1134B40F7959F5FC9F7880F911D9695879597F9FB
S1134B500895E1E0660F771F881FBB1F6217730774
S1134B608407BA0720F0621B730B840BBA0BEE1F89
S1134B7088F7E095089598D088F09F5790F0B92F62
S1134B809927B751A0F0D1F0660F771F881F991F9E
S1134B901AF0BA95C9F712C0B13081F09FD0B1E0D4
S1134BA008959CC0672F782F8827B85F39F0B93FE4
S1134BB0CCF3869577956795B395D9F73EF49095A0
S1134BC08095709561957F4F8F4F9F4F0895E8941E
S1134BD009C097FB3EF490958095709561957F4F41
S1134BE08F4F9F4F9923A9F0F92F96E9BB279395EF
S1134BF0F695879577956795B795F111F8CFFAF4FF
S1134C00BB0F11F460FF1BC06F5F7F4F8F4F9F4F2F
S1134C1016C0882311F096E911C0772321F09EE88D
S1134C20872F762F05C0662371F096E8862F70E0F3
S1134C3060E02AF09A95660F771F881FDAF7880FCD
S1134C409695879597F9089597F99F6780E870E09E
S1134C5060E008959FEF80EC089500240A941616EE
S1134C60170618060906089500240A941216130656
S1134C70140605060895092E0394000C11F48823E4
S1134C8052F0BB0F40F4BF2B11F460FF04C06F5F00
S1134C907F4F8F4F9F4F089557FD9058440F551FD6
S1134CA059F05F3F71F04795880F97FB991F61F0AA
S1134CB09F3F79F087950895121613061406551F21
S1134CC0F2CF4695F1DF08C0161617061806991F8D
S1134CD0F1CF86957105610508940895E894BB2782
S1134CE066277727CB0197F908950BD0C4CFB5DF9A
S1134CF028F0BADF18F0952309F0A6CFABCF112422
S1134D00EECFCADFA0F3959FD1F3950F50E0551F66
S1134D10629FF001729FBB27F00DB11D639FAA270C
S1134D20F00DB11DAA1F649F6627B00DA11D661F5B
S1134D30829F2227B00DA11D621F739FB00DA11D7C
S1134D40621F839FA00D611D221F749F3327A00D36
S1134D50611D231F849F600D211D822F762F6A2FD2
S1134D6011249F5750408AF0E1F088234AF0EE0F57
S1134D70FF1FBB1F661F771F881F91505040A9F764
S1134D809E3F510570F060CFAACF5F3FECF3983E91
S1134D90DCF3869577956795B795F795E7959F5FCB
S1134DA0C1F7FE2B880F911D9695879597F9089565
S1134DB02F923F924F925F926F927F928F929F9227
S1134DC0AF92BF92CF92DF92EF92FF920F931F9315
S1134DD0CF93DF93CDB7DEB760970FB6F894DEBFFD
S1134DE00FBECDBF7C011B016A01FC011782168234
S1134DF0838181FF2AC39E012F5F3F4F3901F70151
S1134E009381F10193FD859193FF81911F01882383
S1134E1009F417C3853239F493FD859193FF819189
S1134E201F01853231F4B70190E0BCD7560165010A
S1134E30E6CF10E0512C912CFFE1F915D8F08B321C
S1134E4079F038F4803279F08332A1F4F92DF061ED
S1134E502EC08D3261F0803369F4292D21602DC07C
S1134E60392D3260932E892D8460982E2AC0E92D25
S1134E70E86015C097FC2DC020ED280F2A3088F477
S1134E8096FE06C03AE0139F200D1124122F19C07C
S1134E908AE0589E200D1124522EE92DE0629E2EA8
S1134EA010C08E3231F496FCCCC2F92DF0649F2EE2
S1134EB008C08C3621F4292D2068922E02C0883631
S1134EC041F4F10193FD859193FF81911F018111BB
S1134ED0B3CF9BEB980F933020F4992D9061805EB3
S1134EE007C09BE9980F933008F059C1992D9F7E14
S1134EF096FF16E09F73992E853619F49064992EC7
S1134F0008C0863621F4392F3068932E02C011115F
S1134F10115097FE07C01C3350F444244394410EAF
S1134F2027E00BC0183038F027E017E005C027E071
S1134F309CE3492E02C0212F412C560184E0A80E87
S1134F40B11CF6016081718182819381042DA301DA
S1134F5016D66C01F981FC87F0FF02C0F3FF06C08E
S1134F6091FC06C092FE06C000E205C00DE203C03B
S1134F700BE201C000E08C858C7019F0011143C272
S1134F8080C297FE10C04C0CFC85F4FF04C08A81DB
S1134F90813309F44A94141474F528E0241578F53F
S1134FA088E0482E2CC096FC2AC0812F90E08C15F6
S1134FB09D059CF03CEFC3163FEFD30674F0892D9A
S1134FC08068982E0AC0E2E0F0E0EC0FFD1FE10FCC
S1134FD0F11D8081803319F411501111F4CF97FE23
S1134FE00EC044244394410E812F90E0C816D90684
S1134FF02CF41C1904C04424439401C010E097FE0F
S113500006C01C141D0434F4C601019605C085E0D5
S113501090E002C081E090E001110196112331F08B
S1135020212F30E02F5F3F4F820F931F252D30E05B
S11350308217930714F4581A01C0512C892D8970D2
S113504041F4552031F0B70180E290E0ABD65A9498
S1135050F8CF002321F0B701802F90E0A3D693FC72
S113506008C0552031F0B70180E390E09BD65A94F4
S1135070F8CF97FE4AC04601D7FE02C0812C912C7E
S1135080C60188199909F301E80FF91FFE87ED8716
S1135090960124193109388B2F87012F10E01195BF
S11350A0019511093FEF8316930621F4B7018EE2AF
S11350B090E078D6C814D9044CF08F859889881567
S11350C0990524F4ED85FE85818101C080E3F1E03A
S11350D08F1A91082D853E852F5F3F4F3E872D8780
S11350E08016910624F0B70190E05CD6DBCFC8149B
S11350F0D90441F49A81963320F4953319F43C850C
S113510034FF81E3B70190E048C08A81813319F00C
S11351109C859F7E9C87B70190E044D6111105C001
S113512094FC16C085E690E015C0B7018EE290E0CD
S113513039D61E5F82E001E0080FF301E80FF11D8C
S11351408081B70190E02ED6802F0113F4CFE8CFF1
S113515085E490E0B70126D6D7FC06C0C114D1047B
S113516041F4EC85E4FF05C0D194C194D1088DE2EB
S113517001C08BE2B70190E015D680E32AE0C216A5
S1135180D1042CF08F5FFAE0CF1AD108F7CFB70122
S113519090E008D6B701C601C09604D649C183364B
S11351A031F0833779F0833509F052C01FC05601BE
S11351B032E0A30EB11CF6018081898301E010E086
S11351C0630111C05601F2E0AF0EB11CF601C080BC
S11351D0D18096FE03C0612F70E002C06FEF7FEFB5
S11351E0C601D5D58C01F92DFF7713C0560122E0F5
S11351F0A20EB11CF601C080D18096FE03C0612FBF
S113520070E002C06FEF7FEFC60199D58C01F92DD4
S1135210F0689F2EF3FD18C0852D90E0081719073C
S113522098F4B70180E290E0BDD55A94F5CFF60129
S113523097FC859197FE81916F01B70190E0B2D5FB
S113524051105A94015011090115110581F7F0C04C
S1135250843611F0893659F5560197FE09C024E0C9
S1135260A20EB11CF60160817181828193810AC012
S1135270F2E0AF0EB11CF60160817181072E000CC3
S1135280880B990BF92DFF769F2E97FF09C09095F7
S11352908095709561957F4F8F4F9F4FF0689F2E3B
S11352A02AE030E0A301E9D5C82EC6183EC0092D76
S11352B0853721F40F7E2AE030E01DC0097F8F3648
S11352C091F018F4883559F0BCC0803719F088374C
S11352D011F0B7C0006104FF09C0046007C094FE68
S11352E008C0066006C028E030E005C020E130E0D8
S11352F002C020E132E0560107FF09C084E0A80E95
S1135300B11CF601608171818281938108C0F2E051
S1135310AF0EB11CF6016081718180E090E0A301C1
S1135320ACD5C82EC6180F77902E96FE0BC0092D4B
S11353300E7FC11650F494FE0AC092FC08C0092DD9
S11353400E7E05C0DC2C092D03C0DC2C01C0D12E3F
S113535004FF0DC0FE01EC0DF11D8081803311F4BA
S1135360097E09C002FF06C0D394D39404C0802FE1
S1135370867809F0D39403FD10C000FF06C01C2DED
S1135380D51478F4150D1D190CC0D51450F4B701BB
S113539080E290E007D5D394F8CFD51410F45D18CB
S11353A001C0512C04FF0FC0B70180E390E0FAD490
S11353B002FF16C001FD03C088E790E002C088E543
S11353C090E0B7010CC0802F867851F001FF02C035
S11353D08BE201C080E207FD8DE2B70190E0E2D4E8
S11353E0C11630F4B70180E390E0DCD41150F8CF5B
S11353F0CA94F301EC0DF11D8081B70190E0D2D481
S1135400C110F6CF15C0F4E0F51550F584E0581A34
S113541093FE1EC0011125C02C8523FF27C00EE278
S113542011E0392D3071932EF8018491811121C03E
S1135430552009F4FCCCB70180E290E0B3D45A942F
S1135440F7CFF7018681978123C08FEF9FEF20C0AC
S1135450B70180E290E0A6D45A945110F9CFDACF84
S1135460512CB701802F90E09DD4D6CF02E311E0F8
S1135470D8CF91108052B70190E094D40F5F1F4FA2
S1135480D3CF23E0251510F483E0C1CF512CC4CF32
S113549060960FB6F894DEBF0FBECDBFDF91CF91FB
S11354A01F910F91FF90EF90DF90CF90BF90AF903E
S11354B09F908F907F906F905F904F903F902F9030
S11354C00895DB018F939F9345D0BF91AF91A29F25
S11354D0800D911DA39F900DB29F900D11240895EE
S11354E0A1E21A2EAA1BBB1BFD010DC0AA1FBB1FE4
S11354F0EE1FFF1FA217B307E407F50720F0A21B56
S1135500B30BE40BF50B661F771F881F991F1A94C2
S113551069F760957095809590959B01AC01BD01EC
S1135520CF010895EE0FFF1F0024001C0BBE07904F
S1135530F691E02D0994A29FB001B39FC001A39FEF
S1135540700D811D1124911DB29F700D811D1124B8
S1135550911D0895F0DFA59F900DB49F900DA49F19
S1135560800D911D112408950F931F93CF93DF9302
S11355708230910510F482E090E0E091B106F09160
S1135580B20620E030E0A0E0B0E0309719F14081AD
S113559051810281138148175907C8F08417950770
S11355A069F4109731F012960C93129713961C938A
S11355B027C00093B1061093B20622C0211531050D
S11355C019F04217530718F49A01BD01EF01DF01E6
S11355D0F801DBCF21153105F9F0281B390B2430F4
S11355E0310580F48A819B816115710521F0FB01ED
S11355F09383828304C09093B2068093B106FE0124
S1135600329644C0FE01E20FF31F8193919322501E
S11356103109398328833AC02091AF063091B0060E
S1135620232B41F420910201309103013093B00601
S11356302093AF062091000130910101211531051D
S113564041F42DB73EB74091040150910501241B4C
S1135650350BE091AF06F091B006E217F307A0F422
S11356602E1B3F0B2817390778F0AC014E5F5F4FB4
S11356702417350748F04E0F5F1F5093B006409330
S1135680AF068193919302C0E0E0F0E0CF01DF9197
S1135690CF911F910F910895CF93DF93009709F451
S11356A081C0FC01329713821282A091B106B0919D
S11356B0B206109781F420813181820F931F2091CB
S11356C0AF063091B0062817390751F5F093B006AC
S11356D0E093AF0667C0ED0120E030E0CE17DF07AE
S11356E040F44A815B819E0141155105F1F0EA01C4
S11356F0F5CFD383C28340815181840F951FC8178E
S1135700D90759F488819981840F951F0296918352
S113571080838A819B81938382832115310529F4B7
S1135720F093B206E093B1063DC0E901FB83EA833E
S113573049915991C40FD51FEC17FD0761F480817D
S11357409181840F951F0296E90199838883828150
S113575093819B838A83E0E0F0E012968D919C9183
S11357601397009719F0FD01DC01F7CF8D919C91FF
S113577011979D012E5F3F4F820F931F2091AF061B
S11357803091B0062817390769F4309729F410923C
S1135790B2061092B10602C013821282B093B00610
S11357A0A093AF06DF91CF9108956F927F928F926D
S11357B09F92AF92BF92CF92DF92EF92FF920F939C
S11357C01F93CF93DF93009781F4CB01DF91CF91A7
S11357D01F910F91FF90EF90DF90CF90BF90AF900B
S11357E09F908F907F906F90BFCEFC01E60FF71FC4
S11357F09C0122503109E217F30708F4A5C0EC011B
S1135800D9010D911C91119706171707A8F00530BF
S1135810110508F497C0C80104978617970708F480
S113582091C002501109061B170B019311936D933C
S11358307C93CF0131DF86C05B01A01AB10A4C0111
S1135840800E911EA091B106B091B206612C712C0C
S1135850E12CF12C109709F446C08D919C9111977D
S1135860A815B905B1F56C0142E0C40ED11CCA14E7
S1135870DB0478F14C018A189B08640142E0C40EF1
S1135880D11C1296BC9012971396AC91B5E0CB162E
S1135890D10440F0B282A38391828082D9016D93B6
S11358A07C9309C00E5F1F4F800F911FF9019183F4
S11358B08083EB2DFA2FE114F10431F0D701139614
S11358C0FC93EE9312973EC0F093B206E093B106B8
S11358D039C06816790608F43C017D0112960D90D2
S11358E0BC91A02DB7CF8091AF069091B0068816D9
S11358F09906E1F466167706C8F480910001909148
S11359000101009741F48DB79EB740910401509175
S11359100501841B950BE817F907B0F4F093B00662
S1135920E093AF06F901718360830CC0CB011CDEE8
S11359307C01009749F0A801BE0119D2CE01ACDE6A
S1135940C70104C0CE0102C080E090E0DF91CF9196
S11359501F910F91FF90EF90DF90CF90BF90AF9089
S11359609F908F907F906F9008953F924F925F9297
S11359706F927F928F929F92AF92BF92CF92DF925B
S1135980EF92FF920F931F93CF93DF935C016B0110
S11359907A016115710519F0FB0191838083E1148B
S11359A0F10429F0C7010297839708F0C6C0E50106
S11359B02196F5011081812F90E0B9D1892B11F046
S11359C05E01F5CF1D3229F42196F501118101E024
S11359D007C01B3221F4E5012296F501118100E094
S11359E0E114F104B1F0F0E1EF16F10429F4AEC0D2
S11359F010E3E114F10401F12AE0E216F104A9F143
S1135A0080E1E816F10471F0E8E0EE16F104F1F437
S1135A1013C0103339F588818F7D883549F7198192
S1135A2022960260F0E1EF2EF12C88248A94982CBF
S1135A30A82CAFE0BA2E1FC078E0E72EF12C882402
S1135A408A94982CA82CEFE1BE2E15C06FEF7FEF3F
S1135A50CB0197010F2C000C440B550B41DD490180
S1135A605A0109C08AE0E82EF12C69E9862E982CA7
S1135A70A82C69E1B62E40E060E070E0CB0127017C
S1135A800F2C000C66087708FE0150ED352E310E00
S1135A9029E0231570F42FEB210F2A3118F439EC87
S1135AA0332E06C02FE9210F2A3128F529EA322E98
S1135AB0310E232D30E02E153F05ECF44F3FC1F09D
S1135AC086169706A806B90680F0A3019201F9DCB0
S1135AD0232D30E040E050E0620F731F841F951FB8
S1135AE0621773078407950710F44FEF01C041E074
S1135AF021961081C9CFC114D10451F0442311F06F
S1135B00219703C001FF04C02297F601D183C0830B
S1135B1000FF07C090958095709561957F4F8F4FDA
S1135B209F4F4F3F79F482E290E09093B4068093C4
S1135B30B3063FEF2FEF9FEF0DC040E030E020E0D1
S1135B4090E008C0462F372F282F04C0103309F0E7
S1135B5069CF61CF642F732F822FDF91CF911F9173
S1135B600F91FF90EF90DF90CF90BF90AF909F90F8
S1135B708F907F906F905F904F903F900895283062
S1135B8008F027E03327DA01990F311D87FD916072
S1135B9000966105710539F432602E5F3D9330E360
S1135BA02A95E1F708959F3F30F08038710561052B
S1135BB009F03C5F3C5F3D93913008F08068911D93
S1135BC0DF93CF931F930F93FF92EF92192F987F38
S1135BD09695E92F96959695E90FFF27E057FE4F86
S1135BE099273327EE24FF24A701E70105900894A1
S1135BF0079428F4360FE71EF81E491F511D660F3F
S1135C00771F881F991F0694A1F70590079428F41D
S1135C10E70EF81E491F561FC11D770F881F991FD5
S1135C20661F0694A1F70590079428F4F80E491FFF
S1135C30561FC71FD11D880F991F661F771F069413
S1135C40A1F70590079420F4490F561FC71FD81FCA
S1135C50990F661F771F881F0694A9F784911095E2
S1135C60177041F0D695C79557954795F794E794E3
S1135C701A95C1F7E6E3F1E0689415901591359112
S1135C806591959105907FE27395E118F10A430BB4
S1135C90560BC90BD009C0F7E10CF11E431F561F68
S1135CA0C91FD01D7EF4703311F48A95E6CFE894B1
S1135CB0015030F0080F0AF40027021708F4202FCF
S1135CC02395022F7A3328F079E37D932A95E9F717
S1135CD010C07D932A9589F6069497956795379514
S1135CE017951794E118F10A430B560BC90BD00909
