:1000000028C100000C94731F4DC100004BC10000BB
:1000100049C1000047C1000045C1000043C10000C4
:1000200041C100003FC100003DC100003BC10000D4
:1000300039C1000037C1000035C100000C94E91F30
:1000400031C100002FC100000C94AA200C94FB20A9
:1000500029C100000C94291F25C1000023C1000004
:1000600021C100001FC100001DC100001BC1000014
:1000700019C1000017C100000C94D81D0C94301E4B
:1000800011C100000FC100000DC1000038155E1540
:100090003C155E1540155E1544155E154A155E1536
:1000A0004A155E155E155E1547155E154F155E15F2
:1000B0005E155E1554155E1557155E155E155E15B9
:1000C0005E155E155A155E155E155E155E155E159C
:1000D0005E155E155E155E155E155E155E155E1588
:1000E0005E155E155E155E155E155E155E155E1578
:1000F0005E155E155E155E155E155E155E155E1568
:100100005E155E155E155E155E155E155E155E1557
:100110005E155E155E155E155E155E155E155E1547
:100120005E155E155E155E155E155E154F156E61EA
:100130006E00696E660000407A10F35A00A0724E9D
:1001400018090010A5D4E80000E87648170000E47C
:100150000B54020000CA9A3B000000E1F5050000C4
:1001600080969800000040420F000000A086010029
:100170000000102700000000E803000000006400F9
:10018000000000000A000000000001000000000064
:100190002C76D888DC674F0823DFC1DFAE59E1B188
:1001A000B796E5E3E453C63AE651997696E8E6C297
:1001B0008426EB898C9B62ED407C6FFCEFBC9C9F9E
:1001C00040F2BAA56FA5F490055A2AF75C936B6CC0
:1001D000F9676DC11BFCE0E40D47FEF520E6B500B4
:1001E000D0ED902E0300943577050080841E080022
:1001F00000204E0A000000C80C333333330F986ED2
:1002000012831141EF8D2114893BE65516CFFEE68E
:10021000DB18D1844B381BF77C1D901DA4BBE42454
:10022000203284725E228100C9F124ECA1E53D27D1
:1002300096012B056B15D1162A181B1C8E1C711DDF
:10024000FB1E521F1220DD21A2012F0570155F1821
:100250001D2011241FBECFEFD0E1DEBFCDBF12E0C5
:10026000A0E0B1E0E8E7F5E500E00BBF02C00790D1
:100270000D92A432B107D9F725E0A4E2B2E001C0A3
:100280001D92AF3AB207E1F711E0C4E2D1E004C039
:100290002197FE010E949525C831D107C9F72FD0BB
:1002A0000C94B02AADCE24E131E0FC0131832083EF
:1002B0000CC50895CF93DF93EC0184E191E099831D
:1002C0008883CE0102D5CE010E94E621DF91CF9135
:1002D000089524E131E0FC0131832083F6C40895C0
:1002E000CF93DF93EC0184E191E099838883CE0181
:1002F000ECD4CE010E94E621DF91CF91089540E039
:1003000052EC61E070E084E894E00E947F1D40E0E0
:1003100052EC61E070E082E295E00E94242060E00F
:1003200070E088E195E00E949C1FFFCF66E071E0DD
:1003300088E292E04ED642E16BE071E084E292E026
:100340008AC6089584E191E0909325028093240267
:1003500084E292E0BAD488E292E013C6089583E082
:1003600098E20895FC0187890895FC01808D918DA4
:100370000895FC0182A193A10895FC01828D90E073
:100380000895EF92FF920F931F93CF93DF93EC01A9
:100390007B018A01488D598D041715070CF4402FF5
:1003A0004A8F50E0B7018AA19BA10E94A1298B8DA1
:1003B000882311F0888D8A8F8F8985FF11C098A1BD
:1003C00091FF0EC02A8D30E04AA15BA16C8D7D8D1E
:1003D0006F5F7F4F8AE592E00E94A10A90E03CC0E7
:1003E00084FF11C088A180FF0EC02A8D30E04AA191
:1003F0005BA16C8D7D8D6F5F7F4F8AE592E00E94DF
:10040000390A90E029C08E8D8823F1F0BE0187E87B
:1004100092E00E9467179801A701BC0183E792E070
:100420000E94C9168AE592E0CED7811110C083E7F9
:1004300092E00E949215882369F083E792E00E947F
:10044000951581E090E008C081E090E005C081E072
:1004500090E002C081E090E0DF91CF911F910F9179
:10046000FF90EF900895FC01848D958D0895FC0117
:10047000848D958D01960895DC0194962D913C9183
:1004800095976217730798F49696ED91FC9197975C
:100490006115710549F080E090E00280F381E02D64
:1004A000019668177907C9F780819181089580E0E6
:1004B00090E008950F931F93CF93DF93EC018B018E
:1004C00084E090E00E94E421FC01138212821183F7
:1004D00000832A813B81232B19F49B838A8304C0E8
:1004E000EC81FD81938382839D838C8388819981B4
:1004F000019699838883DF91CF911F910F91089581
:10050000EF92FF920F931F93CF93DF93EC01142F81
:100510007901B6D381E291E0998388831F8B9E2D68
:100520008F2D21E0E21622E0F20614F090E082E046
:10053000988F898F1A8E0B8F1D8E1C8E1E8E1F8E8C
:1005400019A218A21DA21CA21FA21EA219A618A6BB
:1005500088E0FE01BA96DF011D928A95E9F71073D3
:1005600089F08DE190E00E94E4218C0122E030E0EE
:10057000AE01405E5F4F68E171E0C6D1B801CE01C7
:10058000849698DFC7010E949E259BA38AA3DF91D2
:10059000CF911F910F91FF90EF900895EF92FF92EE
:1005A0000F931F93CF93DF937C01FC018281938192
:1005B00020813181232B81F0C0E0D0E0FC01028159
:1005C00013810E94E6212196802F912FF70120812F
:1005D0003181C217D30790F3F70111821082138281
:1005E000128215821482DF91CF911F910F91FF909B
:1005F000EF900895EF92FF920F931F93CF93DF93A5
:100600007C0181E291E0D70111969C938E939496A0
:100610008D919C919597892BE1F0C0E0D0E0BE01CF
:10062000C7012ADF8C0149D3181619065CF00115A1
:10063000110541F0D801ED91FC910280F381E02D8C
:10064000C80109952196F70184A195A1C817D9077A
:1006500030F3E701A496CE01A1DFD70192968D91E8
:100660009C919397009711F00E943626CE0196DF59
:10067000C701FFD2DF91CF911F910F91FF90EF90B3
:100680000895CF93DF93EC01B5DFCE010E94E62100
:10069000DF91CF9108956F927F928F929F92AF9248
:1006A000BF92CF92DF92EF92FF920F931F93CF935F
:1006B000DF93CDB7DEB7A0970FB6F894DEBF0FBEBD
:1006C000CDBF7C016B013A014901FC01A6A4B7A48E
:1006D000A114B10459F1BC01CE014D961ED389E895
:1006E00091E09A83898382E1F6013296DE011396C6
:1006F00001900D928A95E1F7F601848995899E8B88
:100700008D8B86E07696DE01579601900D928A9544
:10071000E1F7BE01635E7F4FCE010196F5010995B9
:10072000CE01019636D3CE014D96CFD2F70162A10C
:1007300073A1660D771DA801C4010E94A129A0968E
:100740000FB6F894DEBF0FBECDBFDF91CF911F91E2
:100750000F91FF90EF90DF90CF90BF90AF909F9060
:100760008F907F906F900895CF92DF92EF92FF92DB
:100770000F931F93CF93DF93CDB7DEB7A0970FB63C
:10078000F894DEBF0FBECDBF8C017B01BA0181E0C2
:10079000F801878FA901C801F4DDF801C0A8D1A82C
:1007A000C114D10459F1B801CE014D96B6D289E8F1
:1007B00091E09A83898382E1F7013296DE011396F4
:1007C00001900D928A95E1F7F701848995899E8BB6
:1007D0008D8B86E07696DE01579601900D928A9574
:1007E000E1F7BE01635E7F4FCE010196F6010995E8
:1007F000CE010196CED2CE014D9667D2A0960FB60D
:10080000F894DEBF0FBECDBFDF91CF911F910F9146
:10081000FF90EF90DF90CF900895EF92FF920F93AB
:100820001F93CF93DF93CDB7DEB7A0970FB6F894A1
:10083000DEBF0FBECDBF43705527FC0120A131A103
:100840004217530709F43FC051A340A321E030E011
:10085000452B11F020E030E0D9015596AA0FBB1FBF
:10086000A80FB91FED90FC90E114F10461F18B0128
:10087000BC01CE014D9651D289E891E09A838983DB
:1008800082E1F8013296DE01139601900D928A956D
:10089000E1F7F801848995899E8B8D8B86E07696A9
:1008A000DE01579601900D928A95E1F7BE01635ED5
:1008B0007F4FCE010196F7010995CE01019669D2CD
:1008C000CE014D9602D2A0960FB6F894DEBF0FBEB1
:1008D000CDBFDF91CF911F910F91FF90EF900895C1
:1008E00080E099E208952BE231E0FC01318320831E
:1008F000C0C10895CF93DF93EC01F5DFCE010E94D4
:10090000E621DF91CF910895EF92FF920F931F930D
:10091000CF93DF93EC017A01022F132FB1D18BE239
:1009200091E099838883F88EEF8A802F912F813010
:1009300022E0920714F080E092E09A8F898F1C8E5B
:100940001B8EDF91CF911F910F91FF90EF90089533
:10095000FC01818D928D0895FC018789908D089509
:1009600081E0089521E06817790709F020E0822FDF
:10097000089521E06817790709F420E0822F08958F
:1009800023E531E0FC013183208303C20895CF9336
:10099000DF93EC01F5DFCE010E94E621DF91CF91DC
:1009A000089587E693E00E9471198AE592E00BC5ED
:1009B00008958AE592E024C508950F931F93CF937D
:1009C000DF9300D000D000D0CDB7DEB78C01BE01E0
:1009D0006F5F7F4F86E0FB0111928A95E9F787E60A
:1009E00093E00E94D41A045E1F4F89811F928F9357
:1009F0008A811F928F938B811F928F938C811F927C
:100A00008F938D811F928F938E811F928F9381E39D
:100A100091E09F938F931F930F930E94F8290FB635
:100A2000F894DEBF0FBECDBFC80126960FB6F8946E
:100A3000DEBF0FBECDBFDF91CF911F910F91089503
:100A4000CF93DF93EC0177D283E591E0998388839C
:100A5000DF91CF9108958CE292E0F2CF08958CE27D
:100A600092E08ECF08950F931F93CF93DF93CDB76E
:100A7000DEB76C970FB6F894DEBF0FBECDBF6AE548
:100A800072E0CE010196DED4CE010196F5D1882325
:100A900029F0CE010196E1D18C0102C00FE710E0F0
:100AA000CE01019676D1C8016C960FB6F894DEBFE0
:100AB0000FBECDBFDF91CF911F910F91089580E0C0
:100AC00098E20895CF93DF93EC01DAD08DE691E0C0
:100AD00099838883188E1F8A1A8E198E1C8E1B8EFE
:100AE0001E8E1D8E18A21F8EDF91CF910895FC01DE
:100AF0008789908D0895FC01818D928D0895DC0188
:100B00005B962D913C915C976217730798F45D9604
:100B1000ED91FC915E976115710549F080E090E0E0
:100B20000280F381E02D019668177907C9F780816B
:100B30009181089580E090E008950F931F93CF93E3
:100B4000DF93EC018B01CB01B0D084E090E00E94F8
:100B5000E421FC0113821282118300832D8D3E8DCE
:100B6000232B19F49E8F8D8F04C0EF8DF8A19383F2
:100B7000828398A38F8F8B8D9C8D01969C8F8B8FFA
:100B8000DF91CF911F910F910895EF92FF920F93F4
:100B90001F93CF93DF937C01FC018281938120819D
:100BA0003181232B81F0C0E0D0E0FC010281138170
:100BB0000E94E6212196802F912FF701208131811B
:100BC000C217D30790F3F7011182108213821282A9
:100BD00015821482DF91CF911F910F91FF90EF90BA
:100BE0000895EF92FF920F931F93CF93DF937C01B1
:100BF0008DE691E0D70111969C938E935B968D9133
:100C00009C915C97892BE1F0C0E0D0E0BE01C70168
:100C100076DF8C0152D0181619065CF0011511050B
:100C200041F0D801ED91FC910280F381E02DC801E3
:100C300009952196F701838D948DC817D90730F354
:100C4000E7016B96CE01A1DFCE019FDFC70111D076
:100C5000DF91CF911F910F91FF90EF900895CF9367
:100C6000DF93EC01BEDFCE010E94E621DF91CF9140
:100C70000895089580E090E008950C94E621089589
:100C8000CF93DF93EC0127E731E0FC01219331930F
:100C9000CF01ECD11E8A1D8ADF91CF910895029673
:100CA00050C2089502964FC20895FC0125893689E5
:100CB000C9010196968B858B0895FC01258936899B
:100CC000C9010197968B858B0895CF93DF93FC0123
:100CD00081E891E09183808382819381009781F004
:100CE000EF01EBDF181619065CF08A819B810097F3
:100CF00039F0DC01ED91FC910280F381E02D099542
:100D0000DF91CF910895CF93DF93EC01DEDFCE0129
:100D10000E94E621DF91CF91089521E831E0FC01A6
:100D200031832083738362836115710511F0CB01D8
:100D3000BCCF0895AF92BF92CF92DF92EF92FF9215
:100D40000F931F93CF93DF937C016B01142F5901F5
:100D500082E390E00E94E421EC019501412FB6016D
:100D6000CFDBBE01C701D9DFDF91CF911F910F917A
:100D7000FF90EF90DF90CF90BF90AF900895FC016F
:100D800082819381009711F0FCCA089580E090E081
:100D90000895089587E693E00C947119089587E605
:100DA00093E00C9401190895CF93DF93EC0187E64B
:100DB00093E00E947119E881F9810088F189E02DA2
:100DC000CE010995882341F0AE014A5E5F4F6C89E0
:100DD0007D898AE592E000D3DF91CF910895FC01EF
:100DE000648975896F3FFFEF7F0749F087E693E0DD
:100DF0000E94041C21E0892B19F420E001C020E0AE
:100E0000822F0895CF93DF93FC01EC01229686890F
:100E10001F928F9387891F928F93808D1F928F933C
:100E2000818D1F928F93828D1F928F93838D1F923E
:100E30008F9381E391E09F938F93DF93CF930E94F1
:100E4000F8298DB79EB740960FB6F8949EBF0FBE97
:100E50008DBFCE01DF91CF910895FC016489758922
:100E60006F3FFFEF7F0729F087E693E00C94F11ABC
:100E700008958FE790E00895CF93DF9300D000D0DE
:100E800000D0CDB7DEB7FE01319626E0DF011D921E
:100E90002A95E9F7FC01248935892F3F3F4F69F0F6
:100EA00046E050E0BE016F5F7F4F46960E94942956
:100EB00021E0892B19F420E001C020E0822F269642
:100EC0000FB6F894DEBF0FBECDBFDF91CF9108956E
:100ED000FC0144895589FB01248935894217530750
:100EE00061F46A5E7F4F46E050E046960E94942986
:100EF00021E0892B19F020E001C020E0822F089525
:100F0000FC0144895589FB0124893589421753071F
:100F100061F46A5E7F4F46E050E046960E94942955
:100F200021E0892B19F420E001C021E0822F0895EF
:100F30000C94E621089529E831E0DC0111963C93F8
:100F40002E932FEF3FEF55963C932E935497FC0131
:100F5000769626E0DF011D922A95E9F70895DC01D7
:100F600089E891E011969C938E9355967C936E93AD
:100F70005497569686E0FA0101900D928A95E1F712
:100F80000895CF93DF93FC0183EA91E091838083FE
:100F900082819381009781F0EF018FDE1816190688
:100FA0005CF08A819B81009739F0DC01ED91FC9126
:100FB0000280F381E02D0995DF91CF910895CF93C1
:100FC000DF93EC01DEDFCE010E94E621DF91CF91BD
:100FD0000895EF92FF920F931F93CF93DF938C01AD
:100FE0007B0181E290E00E94E421EC01B7016ADD1F
:100FF00083EA91E0F80191838083D383C2832097B1
:1010000011F0CE0152DEDF91CF911F910F91FF9031
:10101000EF900895EF92FF920F93CF93DF931F927B
:10102000CDB7DEB77C0101E021E030E083DE84E172
:1010300091E0F70191838083198241E050E0BE0185
:101040006F5F7F4FC7019BDE0F90DF91CF910F91B4
:10105000FF90EF900895CF93DF93EC01DBDF8BEAF5
:1010600091E099838883DF91CF910895AF92BF92E9
:10107000DF92EF92FF920F931F93CF93DF9300D0F5
:101080001F92CDB7DEB77C015B01FC0161937193C8
:1010900019821A821B8280E1DF011D928A95E9F78D
:1010A000F701128AFB0101900020E9F78F01061B6E
:1010B000170B0250110982F1D12C06C0D7015296AC
:1010C000DC90BFE0BD1518F1F501E00FF11F808144
:1010D0008D3219F40F5F1F4F17C0F501E00FF11F9C
:1010E0003197908199838A8340E150E060E070E01D
:1010F000CE0101960E949F27F701ED0DF11D62833D
:10110000F70182898F5F828B02501109BAF6D701ED
:1011100052968C91833020F482E0F701828B04C0D8
:1011200080E1D70152968C930F900F900F90DF9132
:10113000CF911F910F91FF90EF90DF90BF90AF90F4
:10114000089502960895FC018289089523EB31E009
:10115000FC013183208382859385009711F00C94E4
:1011600036260895CF93DF93EC01F0DFCE010E9485
:10117000E621DF91CF910895CF93DF93FC0183EBBC
:1011800091E09183808387E190E0938382832FEFC6
:101190003FEF3583248397838683118610861386D9
:1011A000128615861486DF011E9686E0ED011992DF
:1011B0008A95E9F7759684E0DF011D928A95E9F733
:1011C000DF91CF9108950F931F93CF93DF93CDB706
:1011D000DEB76C970FB6F894DEBF0FBECDBF4130BF
:1011E00009F5FC017583648327E130E037832683AA
:1011F000AC01425F5F4F26E0F801DA0101900D92E9
:101200002A95E1F7FC01058916890115110551F0B0
:10121000CE010196A4DECE010196F8010995CE011A
:101220000196B7DD6C960FB6F894DEBF0FBECDBF4A
:10123000DF91CF911F910F9108958F929F92AF925E
:10124000BF92CF92DF92EF92FF920F931F93CF93B3
:10125000DF93CDB7DEB7C455D1090FB6F894DEBF22
:101260000FBECDBFDC011496ED91FC911597262F92
:1012700030E0E217F30709F092C06C015C01BEE0B8
:10128000AB0EB11CA501BF01CE01C99668DE00E01E
:1012900010E00F2EF9E88F2EF1E09F2EF02D87E859
:1012A00092E00E94441708171907C0F5B80187E8B3
:1012B00092E00E944A177C01DC01ED91FC910480D0
:1012C000F581E02D09958330984229F59E8E8D8E0B
:1012D00082E1FE01FB96DE015F9601900D928A95F8
:1012E000E1F72F968EAD9FAD2F979AAB89AB86E035
:1012F000FE01E15BFF4FDE01D39601900D928A95CE
:10130000E1F740E050E0BE01635E7F4FC70185DA40
:10131000CE014D963EDD0F5F1F4FC1CFF6012789ED
:10132000308D2115310521F189E891E09A83898377
:1013300082E1FE01FB96DE01139601900D928A95E3
:10134000E1F72F968EAD9FAD2F979E8B8D8B86E00C
:10135000FE01E15BFF4FDE01579601900D928A95E9
:10136000E1F7CE010196F9010995CE01019611DD53
:101370008FEF9FEFD60115969C938E93149786E07E
:10138000F50111928A95E9F719961C921E92189709
:101390001D961C921E921C97CE01C996FADCCC5A5F
:1013A000DF4F0FB6F894DEBF0FBECDBFDF91CF91F8
:1013B0001F910F91FF90EF90DF90CF90BF90AF9073
:1013C0009F908F90089521E0FC0184819581019682
:1013D00009F420E0822F0895FC012481358126172D
:1013E000370759F4BA0146E050E00E960E9494295E
:1013F00021E0892B19F020E001C020E0822F089520
:10140000CF93DF93FC01648175816F3FFFEF7F070E
:1014100099F0EC0187E693E00E94041C892B71F49B
:101420008FEF9FEF9D838C832E9686E0FE011192B5
:101430008A95E9F781E003C080E001C080E0DF9198
:10144000CF910895CF93DF93EC01FB0184819581C7
:101450008F3FFFEF9F0739F0AB01425F5F4FBC0149
:10146000CE017DDD02C0CE0166DDCE01DF91CF91E0
:1014700008958F929F92AF92BF92CF92DF92EF9298
:10148000FF920F931F93CF93DF93CDB7DEB7FA018F
:10149000ADB6BEB6DC011496CD90DC901597BFEFCB
:1014A000CB16DB06D9F18DB69EB6DC011696ED9013
:1014B000FC9017978DB79EB78E199F090FB6F894B9
:1014C0009EBF0FBE8DBF0DB71EB70F5F1F4F8BE1C5
:1014D000ADB7BEB711968C93D80112967C936E93DC
:1014E0001197B3E0EB1AF1082E153F0508F47901C6
:1014F000A701BF01C80103960E94A12997012D5F92
:101500003F4F44E0B60187E693E00E9476190FB69C
:10151000F8949EBE0FBE8DBE81E001C080E00FB684
:10152000F894BEBE0FBEADBEDF91CF911F910F915B
:10153000FF90EF90DF90CF90BF90AF909F908F90F3
:1015400008956F927F928F929F92AF92BF92CF92A7
:10155000DF92EF92FF920F931F93CF93DF93CDB75C
:10156000DEB77C01CA018DB69EB6F701A480B580B6
:10157000FFEFAF16BF0609F444C06DB67EB6F701A3
:10158000C680D7804DB75EB74C195D090FB6F89489
:101590005EBF0FBE4DBF0DB71EB70F5F1F4F4DE1B2
:1015A000EDB7FEB74183F80172836183F3E0CF1A90
:1015B000D1082C153D0508F46901A601BC01C8013C
:1015C00003960E94A129F701148A96012D5F3F4FCF
:1015D00044E0B50187E693E00E947619F70114898B
:1015E000111109C087E693E00E947119F701848107
:1015F0009581019699F70FB6F8947EBE0FBE6DBE29
:1016000001C010E0812F0FB6F8949EBE0FBE8DBEB4
:10161000DF91CF911F910F91FF90EF90DF90CF90CE
:10162000BF90AF909F908F907F906F9008950F9391
:101630001F93CF93DF9300D000D01F92CDB7DEB7BA
:10164000FE01319685E0DF011D928A95E9F781E080
:1016500089834A833C832B830D838F0125E044E0FB
:1016600087E693E00E9476190F900F900F900F90ED
:101670000F90DF91CF911F910F9108950F931F93BA
:10168000CF93DF9300D01F92CDB7DEB7423031F059
:1016900004E020E030E042E0CADF1AC0FC014281F1
:1016A0005381F901208131814217530708F49A01CF
:1016B000FC013783268383E089833B832A838E0161
:1016C0000F5F1F4F23E044E087E693E00E94761906
:1016D0000F900F900F90DF91CF911F910F91089570
:1016E0002F923F924F925F926F927F928F929F9232
:1016F000AF92BF92CF92DF92EF92FF920F931F9320
:10170000CF93DF93CDB7DEB72A970FB6F894DEBF3D
:101710000FBECDBF1C0178876F833A8329832DB715
:101720003EB73E832D833C832B83443081F0A981D7
:10173000BA812D913C9104E044E0C10178DFEB8156
:10174000FC810FB6F894FEBF0FBEEDBFDCC0D10127
:1017500016968D919C911797EDB7FEB7E81BF90B84
:101760000FB6F894FEBF0FBEEDBF2DB73EB72F5F8B
:101770003F4F3A872987390185E08183D901119646
:101780001C92E981FA81C080D180F1E0CF1AD108A2
:101790006894AA24A1F8B12C512C412C87E892E03E
:1017A0000E944417C816D90608F077C0A981BA81EB
:1017B00012968D919C91139701978C159D0508F0B9
:1017C0008DC06BC0C8010E943702C816D90661F0EF
:1017D000C80168DA882E912CB2E08B16910461F072
:1017E000452D82E0942D0BC06894882481F8942CB8
:1017F00041E081E090E003C0452D81E090E0F301FD
:101800002181211101C08183D30111962C9130E0F7
:101810008217930709F041C0F301EA0DFB1DD18245
:10182000C0827501B2E0EB0EF11C41110BC0D80172
:10183000ED91FC910480F581E02DC8010995811599
:10184000994269F4C8012BDAA401BC01C3018E0DD1
:101850009F1D0E94A1295701A80CB91C10C0D801D6
:10186000ED91FC910480F581E02DC8010995F3010B
:10187000EE0DFF1D91838083B4E0AB0EB11CE2E05E
:101880008E0E911C8A0C9B1CD10116968D919C91F9
:1018900017978815990508F081CFB2E0AB16B1040F
:1018A00059F4E981FA81208131810AE044E06F81B5
:1018B0007885C101BCDE0AC009851A852A2D44E05D
:1018C0006F81788587E693E00E9476192B813C81B1
:1018D0000FB6F8943EBF0FBE2DBF15C0B60187E806
:1018E00092E00E944A178C013FEFC31AD30ADC0131
:1018F000ED91FC910480F581E02D099583309842AB
:1019000009F066CF5FCFED81FE810FB6F894FEBF80
:101910000FBEEDBF2A960FB6F894DEBF0FBECDBF47
:10192000DF91CF911F910F91FF90EF90DF90CF90BB
:10193000BF90AF909F908F907F906F905F904F90EF
:101940003F902F9008952F923F924F925F926F9207
:101950007F928F929F92AF92BF92CF92DF92EF923F
:10196000FF920F931F93CF93DF93CDB7DEB72897E6
:101970000FB6F894DEBF0FBECDBF4C017A836983EA
:1019800069014DB65EB62DB63EB6463060F4D9015B
:101990002D913C9104E047E04ADE0FB6F8945EBE1C
:1019A0000FBE4DBEA5C0FC01868197812DB73EB705
:1019B000281B390B0FB6F8943EBF0FBE2DBF8DB755
:1019C0009EB701969C838B833C0187E0ADB7BEB781
:1019D00011968C93F601848195818115984209F0C6
:1019E00059C050E09A01265031093E832D83D6011B
:1019F0000D911C9101501109AA24A394B12CF60158
:101A00003696F887EF8387E892E00E94441708171C
:101A1000190708F03BC0D60112968D919C9113973F
:101A200001978017910708F04FC030C0C7013AD91D
:101A300090E0ED81FE81E817F907D9F4C7012FD9AD
:101A40004D815E816F8178850E949429892B89F46C
:101A5000C7014DD8F301EA0DFB1D91838083C701B7
:101A60004AD8F301EA0DFB1D93838283F4E0AF0EA5
:101A7000B11CD40116962D913C911797C50104967F
:101A80002817390718F00F5F1F4FBDCFB1E0AB1615
:101A9000B10451F4F601208131810AE047E0698107
:101AA0007A81C401C4DD0AC00B811C812A2D44E067
:101AB00069817A8187E693E00E9476190FB6F894DF
:101AC0003EBE0FBE2DBE14C0B80187E892E00E9452
:101AD0004A177C01DC01ED91FC910480F581E02D39
:101AE0000995F601248135818217930711F69ECF5F
:101AF0000FB6F8945EBE0FBE4DBE28960FB6F89492
:101B0000DEBF0FBECDBFDF91CF911F910F91FF9030
:101B1000EF90DF90CF90BF90AF909F908F907F908D
:101B20006F905F904F903F902F9008952F923F922B
:101B30004F925F926F927F928F929F92AF92BF92DD
:101B4000CF92DF92EF92FF920F931F93CF93DF9389
:101B5000CDB7DEB728970FB6F894DEBF0FBECDBF66
:101B60009A8389837E836D8339014DB65EB62DB627
:101B70003EB6463041F4D90114968D919C9115974B
:101B80009852029780F0F3012081318100E140E119
:101B90006D817E8189819A814ADD0FB6F8943EBEBF
:101BA0000FBE2DBEBAC0A981BA8116968D919C91A7
:101BB0001797EDB7FEB7E81BF90B0FB6F894FEBF09
:101BC0000FBEEDBF2DB73EB72F5F3F4F38872F8336
:101BD000490181E18183D90111961C92F3010081B1
:101BE0001181015011096894AA24A1F8B12C87E849
:101BF00092E00E9444170817190708F059C0D30152
:101C000012968D919C91139701978017910708F078
:101C10006EC04EC0C70146D8C82EB2E08B1721F067
:101C2000E4E1EB831C8203C0F6E0FB831C82D40159
:101C300011968C911197811103C0EB811196EC9351
:101C4000D40111968C9190E0EB81FC81E817F907A3
:101C500079F5C7010E947705F401EA0DFB1D918318
:101C60008083C7010E947B05F401EA0DFB1D93836D
:101C70008283F4E0AF0EB11CD12CC70110D8A601AD
:101C8000BC01C4018A0D9B1D0E94A129AC0CBD1C86
:101C90008B819C818A0D9B1DA981BA8116962D91FD
:101CA0003C9117972817390718F00F5F1F4F9FCFE8
:101CB000B2E0AB16B10459F4F301208131810AE09E
:101CC00040E16D817E8189819A81B1DC0AC00F81FA
:101CD00018852A2D44E06D817E8187E693E00E947D
:101CE00076190FB6F8943EBE0FBE2DBE16C0B801D1
:101CF00087E892E00E944A177C01D3011496CD90A8
:101D0000DC901597DC01ED91FC910480F581E02DCC
:101D10000995C816D90649F67DCF0FB6F8945EBE70
:101D20000FBE4DBE28960FB6F894DEBF0FBECDBFD6
:101D3000DF91CF911F910F91FF90EF90DF90CF90A7
:101D4000BF90AF909F908F907F906F905F904F90DB
:101D50003F902F9008952F923F924F925F926F92F3
:101D60007F928F929F92AF92BF92CF92DF92EF922B
:101D7000FF920F931F93CF93DF93CDB7DEB76F978B
:101D80000FB6F894DEBF0FBECDBF7C014B014D8F67
:101D9000CDB6DEB6ADB6BEB64A3041F4223009F457
:101DA00027C104E020E030E042DC0BC1243009F41C
:101DB0000EC104E020E030E04CE039DC02C10AE072
:101DC00093014D8DB401C70132DCFBC0D7011696DB
:101DD0008D919C911797EDB7FEB7E81BF90B0FB6E5
:101DE000F894FEBF0FBEEDBF2DB73EB72F5F3F4F3C
:101DF0003F8F2E8F8BE08183B20187E892E00E94B3
:101E00004A172C01DC01ED91FC910480F581E02D55
:101E100009958115B8E29B0761F0212C312C1CC07B
:101E2000232839F004E093014BE0B401C701FFDB44
:101E3000C8C0C2010E945206E82EF12CC2010E94C5
:101E40004F06A701BC018E8D9F8D01960E94A1298E
:101E500097012F5F3F4FA7C08330E8E29E0709F04C
:101E600072C0C2010E9433028615970551F52328DE
:101E700039F00BE09C014D8DB401C701D8DBA1C046
:101E8000C2010E94B201AE8DBF8D11968C93C2012A
:101E90000E943702EE8DFF8D93838283C2010E94E0
:101EA0005206E82EF12CC2010E944F06A701BC0188
:101EB0008E8D9F8D04960E94A12997012C5F3F4F24
:101EC00072C0C2010E94B20181FD07C002E093010D
:101ED0004D8DB401C701ABDB74C0C2010E94BD01CE
:101EE0002816390638F007E093014D8DB401C7017B
:101EF0009EDB67C082199309D70116966D907C907E
:101F00001797B1E06B1A71088615970508F43C0124
:101F1000A701425F5F4FB401CE01019620D8830133
:101F20002E8D3F8D2F5F3F4FA101BE016F5F7F4F11
:101F3000C2010E944B03CE0101960E94C906930183
:101F40002F5F3F4F30C08115994259F5C2010E9461
:101F5000A8042816390638F007E093014D8DB40126
:101F6000C70165DB2EC082199309D7011696ED9043
:101F7000FC901797B1E0EB1AF1088E159F0508F455
:101F80007C01C2010E94AC04BC01620D731DA7015B
:101F90008E8D9F8D01960E94A12997012F5F3F4F43
:101FA00002C021E030E00E8D1F8D44E0B40187E6D1
:101FB00093E00E9476190FB6F894BEBE0FBEADBE78
:101FC0004EC00FB6F894BEBE0FBEADBE48C0F801FD
:101FD00060807180228033802301F1E04F1A510824
:101FE00087E892E051D78415950508F4E8CE0FC034
:101FF000D8016D907C902301B1E04B1A510887E81D
:1020000092E042D78415950508F4D9CEDFCEF701CA
:10201000868197812DB73EB7281B390B0FB6F894F0
:102020003EBF0FBE2DBF8DB79EB701969F8F8E8F7F
:102030008DE0ADB7BEB711968C93B20187E892E000
:1020400029D72C01DC01ED91FC910480F581E02D74
:1020500009958115B8E29B0709F0FECEE1CE0FB6D7
:10206000F894DEBE0FBECDBE6F960FB6F894DEBFFD
:102070000FBECDBFDF91CF911F910F91FF90EF90D9
:10208000DF90CF90BF90AF909F908F907F906F9098
:102090005F904F903F902F9008952F923F924F92D4
:1020A0005F926F927F928F929F92AF92BF92CF92E8
:1020B000DF92EF92FF920F931F93CF93DF93CDB7F1
:1020C000DEB72E970FB6F894DEBF0FBECDBF9C8350
:1020D0008B8378876F8339012DB63EB6463061F029
:1020E000D9012D913C9104E048E0A1DA0FB6F894B3
:1020F0003EBE0FBE2DBE82C1EB81FC8186819781E1
:102100002DB73EB7281B390B0FB6F8943EBF0FBE54
:102110002DBF8DB79EB701969A8789874C0189E0BC
:10212000ADB7BEB711968C93F4011182D3010D9116
:102130001C91015011096894442441F8512CF30179
:102140003496FE87ED873A82298287E892E09CD612
:102150000817190708F014C1D30112968D919C91AC
:10216000139701978017910708F030C1A980BA80B2
:102170000FC1D701ED91FC910480F581E02DC701DD
:1021800009958330984209F05EC0C7010E9437026A
:10219000C816D90609F4F1C0C7010E945206B82E2C
:1021A000E2E08E1721F0F5E1FD831E8203C027E0F7
:1021B0002D831E82D40111968C911197811103C039
:1021C000ED811196EC93D40111968C9190E0ED8104
:1021D000FE81E817F90709F0D6C09401240D351DDA
:1021E0003C872B87D901CD92DC92C7010E94B201B6
:1021F000EB85FC858283F401E40DF51D0E5F1F4F16
:1022000014830383F5E04F0E511C0B2D10E0C70122
:102210000E944F06A801BC01C401840D951D0E94B7
:10222000A129400E511E8D819E81840D951DAB818B
:10223000BC8116962D913C9117972817390708F401
:10224000A5C086019AC0D701ED91FC910480F5816B
:10225000E02DC70109958230994209F08EC0A9800E
:10226000BA80E985FA85E40DF51DD182C08282012C
:102270000E5F1F4FEB81FC81C680D780C01AD10A48
:10228000C7010E94A804C816D90648F4AB81BC81D6
:102290001696CD90DC901797C01AD10A04C0C701DA
:1022A0000E94A8046C01C7010E94AC04A601BC01F5
:1022B00089859A85800F911F0E94A12928014C0CC5
:1022C0005D1CC394C394E985FA85C18261C0D701BE
:1022D000ED91FC910480F581E02DC70109958330D3
:1022E000984209F04AC0C7010E945206823009F0A4
:1022F00044C0C7010E944F0642E050E0BC018D85FA
:102300009E850E949429892BC1F5A980BA80E98510
:10231000FA85E40DF51DD182C08282010E5F1F4F48
:10232000EB81FC81C680D780C01AD10AC7010E9408
:10233000BD01C816D90648F4AB81BC811696CD9074
:10234000DC901797C01AD10A04C0C7010E94BD01D2
:102350006C01C7010E94B901A601BC0189859A855B
:10236000800F911F0E94A12928014C0C5D1CC39471
:10237000C394E985FA85C1820BC00F5F1F4FE5CE7C
:10238000A980BA8005C0A980BA8002C0A980BA809D
:10239000F2E04F16510459F4D3012D913C910AE01B
:1023A00048E06F8178858B819C8141D909C009857E
:1023B0001A85242D44E06F81788587E693E096D7CF
:1023C0000FB6F894BEBE0FBEADBE18C0B80187E808
:1023D00092E060D57C016801BFEFCB1ADB0ADC011B
:1023E000ED91FC910480F581E02D0995F3012481A4
:1023F00035818217930709F06ACFBBCE0FB6F894E8
:102400003EBE0FBE2DBE2E960FB6F894DEBF0FBE99
:10241000CDBFDF91CF911F910F91FF90EF90DF9093
:10242000CF90BF90AF909F908F907F906F905F9074
:102430004F903F902F9008954F925F926F927F92AE
:102440008F929F92AF92BF92CF92DF92EF92FF92C4
:102450000F931F93CF93DF93CDB7DEB7E8970FB6F7
:10246000F894DEBF0FBECDBF4C015B01442E522E4F
:10247000EDB6FEB621E0251548F032E143130CC15C
:1024800004E020E030E042E1D2D806C1D8016D90EE
:102490007C906301B1E0CB1AD10887E892E0F4D4D4
:1024A0008C159D0550F4E2E14E12F6C00AE093014E
:1024B00042E1B501C401BBD8EFC0B60187E892E0A4
:1024C000E9D46C01DC01ED91FC910480F581E02DF3
:1024D00009958330984209F043C0C6010E94370233
:1024E0006816790621F4E2E14E1207C0C6C0C601A3
:1024F0000E94B20183FF07C010C0C6010E94B20152
:1025000082FDC1C0C9C0F2E14F12C6C003E0930111
:1025100042E1B501C4018BD8BFC0D40114968D919E
:102520009C911597A816B90609F082C0A401425FD4
:102530005F4FB501CE014D960E94AF075A945A9451
:10254000252D30E0A8014E5F5F4FBE01635E7F4FD7
:10255000C6010E94B403CE014D960E94C90668C010
:10256000D601ED91FC910480F581E02DC60109951D
:102570008115994209F052C0C6010E94520682306C
:1025800049F4C6010E944F06FC018081918182308E
:10259000994251F022E142127FC003E0930142E1EF
:1025A000B501C40144D878C0B3016250710987E80D
:1025B00092E070D46C01DC01ED91FC910480F58116
:1025C000E02D09958330984251F0E2E14E1264C04B
:1025D00003E0930142E1B501C40129D85DC0D401F3
:1025E00014968D919C911597A816B90609F5F801D6
:1025F00002811381A401425F5F4FB501CE010196B4
:102600000E94AF07A801BE016F5F7F4FC6010E9405
:102610000D04CE0101960E94C9060AC0F2E14F12D4
:102620003BC003E0930142E1B501C40100D834C0CE
:1026300022E1421231C0CDB6DEB6D40116968D919C
:102640009C911797EDB7FEB7E81BF90B0FB6F894FE
:10265000FEBF0FBEEDBF0DB71EB70F5F1F4F83E16B
:10266000818321E044E0B50187E693E03FD60FB6D1
:10267000F894DEBE0FBECDBE0FC0C6010E94B201EF
:1026800083FD4BCF43CFD40114968D919C91159728
:102690008A159B0509F44ACF0FB6F894FEBE0FBE0B
:1026A000EDBEE8960FB6F894DEBF0FBECDBFDF914A
:1026B000CF911F910F91FF90EF90DF90CF90BF903F
:1026C000AF909F908F907F906F905F904F90089504
:1026D0002F923F924F925F926F927F928F929F9232
:1026E000AF92BF92CF92DF92EF92FF920F931F9320
:1026F000CF93DF9300D000D01F92CDB7DEB77C011F
:102700004B0149831901CDB6DEB6ADB6BEB6443035
:1027100038F404E020E030E046E10E94170BD9C015
:10272000D9016D907C90119712964D905C90139703
:1027300083010150110987E892E0A6D38017910721
:1027400040F40AE0930146E1B401C7010E94170B6F
:10275000C0C0B80187E892E09DD38C01DC01ED9107
:10276000FC910480F581E02D09958330984241F079
:102770000BE0930146E1B401C7010E94170BA9C009
:10278000C8010E9437026816790641F00BE09301F8
:1027900046E1B401C7010E94170B9BC0C8010E940B
:1027A000B20183FD08C003E0930146E1B401C70113
:1027B0000E94170B8EC0F701808591850097D9F490
:1027C000C8010E94B5019B838A83BC01D7011A9678
:1027D0008D919C911B970E94BF26F701938782875A
:1027E00015861486718660864A815B8160E070E0A0
:1027F0000E94AA290BC06816790641F00EE09301E9
:1028000046E1B401C7010E94170B63C0D7011C96B3
:102810008D919C911D974816590691F48981845099
:10282000E82FF0E0FB83EA83E40DF51DFD83EC83E4
:10283000C8010E94B5012C813D818217930740F4A5
:1028400007E0930146E1B401C7010E94170B41C0A4
:10285000D7011A968D919C911B97B1016C5F7F4FA8
:102860004A815B81840D951D0E94A129F701848511
:1028700095852A813B81820F931F95878487868166
:102880009781ADB7BEB7A81BB90B0FB6F894BEBF02
:102890000FBEADBFEDB7FEB731967F0187E1119650
:1028A0008C93B9810B2F10E0A801B101CF010196E3
:1028B0000E94A12998012F5F3F4F870144E0B40196
:1028C00087E693E013D50FB6F894BEBE0FBEADBE3B
:1028D00005C00FB6F894BEBE0FBEADBE0FB6F894DD
:1028E000DEBE0FBECDBE0F900F900F900F900F90D9
:1028F000DF91CF911F910F91FF90EF90DF90CF90DC
:10290000BF90AF909F908F907F906F905F904F900F
:102910003F902F9008954F925F926F927F928F9287
:102920009F92AF92BF92CF92DF92EF92FF920F935E
:102930001F93CF93DF93CDB7DEB76C970FB6F894A4
:10294000DEBF0FBECDBF7C016B01ADB6BEB68DB68E
:102950009EB6413061F004E020E030E048E10E94A2
:10296000170B0FB6F894BEBE0FBEADBE50C0FC0133
:10297000608571856115710539F1F901808180FFEC
:1029800023C06150710987E892E084D28C01F7017D
:10299000648175816C157D05B9F444845584628425
:1029A0007384A701425F5F4FCE0101960E94AF077B
:1029B0009201A301BE016F5F7F4FC8010E94B40363
:1029C000CE0101960E94C906F70111861086158670
:1029D0001486868197812DB73EB7281B390B0FB619
:1029E000F8943EBF0FBE2DBF0DB71EB70F5F1F4F30
:1029F00089E1EDB7FEB7818321E044E0B60187E6C7
:102A000093E074D40FB6F8949EBE0FBE8DBE0FB681
:102A1000F894BEBE0FBEADBE6C960FB6F894DEBF86
:102A20000FBECDBFDF91CF911F910F91FF90EF901F
:102A3000DF90CF90BF90AF909F908F907F906F90DE
:102A40005F904F900895CF92DF92EF92FF920F9395
:102A50001F93A22FB32F5D914150C52ED12CF601AB
:102A60003297E135F10550F5EA5BFF4F0C9495255F
:102A70009D010E943E0B28C09D010E94700B24C046
:102A80009D010E94A30C20C09D0107DB1DC09D017C
:102A90004DD81AC08D01242F452F5DD915C08D0149
:102AA000242F452FC9DC10C09D0112DE0DC09D01F1
:102AB00032DF0AC021E0FC01248B06C006E020E0E2
:102AC00030E0452F0E94170B1F910F91FF90EF9060
:102AD000DF90CF9008958AE592E00C94BC080895A9
:102AE0008AE592E00C94A608089508950C94E621D6
:102AF0000895FC018BEB91E0918380831282148214
:102B0000138216821582108617821286118680EA39
:102B100090E09487838781E0858717861686118ADF
:102B2000108A0895FC01828108956F927F928F929E
:102B3000AF92CF92DF92EF92FF920F931F93CF93BA
:102B4000DF93CDB7DEB7C755D1090FB6F894DEBF16
:102B50000FBECDBF3C01FE01319686E0DF011D9224
:102B60008A95E9F7F3018585811106C081859285F3
:102B7000892B21F423E003C020E001C022E0D3012F
:102B800012961C9212971B966D917C911C97812C2A
:102B90000F2EF7E0AF2EF02DFE0131966F01E12CE4
:102BA00000E0AB0187E693E04DD57C01892B09F06D
:102BB000D7C082E08F8381E0888786E08987D30150
:102BC00013966D917C9114976115710529F1CE01D1
:102BD0008B5B9F4F0E943608CE018B5B9F4F0E94FC
:102BE000A308082F81E0800F8A87802F90E0039749
:102BF00014F482E001C086E08B87CE018B5B9F4F8F
:102C00000E94A108402F50E0BC01CE010C960E940A
:102C1000A12965E0600F1BC0F30165817681611514
:102C2000710591F0078110850115110579F081E09A
:102C3000800F8A878FEF8B87A801CE010C960E94A8
:102C4000A12965E0600F03C063E001C063E0D30128
:102C50001E968D919C911F970097F1F15096CD9003
:102C6000DC9051971C141D04BCF5262F30E0A60102
:102C70004C5F5F4F241735077CF1E7E0F0E0EC0F85
:102C8000FD1FE20FF31F43E04C0D408321E0260FB0
:102C9000E7E0F0E0EC0FFD1FE20FF11D26E12083DD
:102CA00022E0260FE7E0F0E0EC0FFD1FE20FF11D40
:102CB00052962D913C9153973183208304E0060F67
:102CC000A601BC0187E090E08C0F9D1F800F911D35
:102CD0000E94A129602F6C0DAE01495F5F4F87E60E
:102CE00093E0E7D46C01892B09F03EC0F3016185C4
:102CF000728561157105E9F0FB0101900020E9F78B
:102D000031978F01061B170B0E3111052CF088E04F
:102D10008FA30DE110E002C089E08FA381E0800F56
:102D20008EA3A801CE0188960E94A12962E0600FBF
:102D300001C060E0AE014A5D5F4F87E693E0ECD4EE
:102D40007C01892B81F461E087E693E018D5892B1B
:102D500059F4D30112961C92EE24E394F12C04C092
:102D6000E12CF12C01C07601C701C95ADF4F0FB623
:102D7000F894DEBF0FBECDBFDF91CF911F910F91B1
:102D8000FF90EF90DF90CF90AF908F907F906F90FB
:102D90000895FC01738B628B57874687318B208B9C
:102DA000089583E792E0A5CE08956F927F928F9267
:102DB0009F92AF92BF92CF92DF92EF92FF920F93CA
:102DC000CF93DF93EC0184EE91E0FE018193919328
:102DD0007F016FEB71E0CF010E9462054E01F3E2CB
:102DE0008F0E911C00E024E130E042E064EC71E0E1
:102DF000C4010E9480025E0185E5A80EB11C22E09C
:102E000030E042E069EC71E0C5010E9480026E0191
:102E1000E7E8CE0ED11C6EEC71E0C6010E9462059F
:102E20003E01F8EA6F0E711C24E030E040E263EDF1
:102E300071E0C3010E948002C652DF4F19821882DE
:102E40001B821A821D821C82C7010E945506C60180
:102E50000E945506B401C7010E949D05B501C70136
:102E60000E949D05B301C6010E949D05DF91CF918F
:102E70000F91FF90EF90DF90CF90BF90AF909F9019
:102E80008F907F906F90089586529F4FFC018081B4
:102E900091810895FC01E652FF4F20813181621734
:102EA000730790F40280F381E02D6115710549F0FC
:102EB00080E090E00280F381E02D019668177907A9
:102EC000C9F780819181089580E090E008958F9204
:102ED0009F92AF92BF92CF92DF92EF92FF920F93A9
:102EE0001F93CF93DF93FC01E652FF4F2081318186
:102EF000232BB9F15B017C0100E010E0812C912CC7
:102F00006F01B801C701C6DFEC01E881F9810480D7
:102F1000F581E02D09958115984221F0CA15DB0550
:102F200011F409C04E010F5F1F4FF601808191819E
:102F30000817190730F381149104B1F0C4010E94FD
:102F40005206823039F4C4010E944F06FC01808190
:102F500091810CC0C4010E944F06FC0182859385BB
:102F600005C080E090E002C080E090E0DF91CF916A
:102F70001F910F91FF90EF90DF90CF90BF90AF9097
:102F80009F908F900895EF92FF920F931F93CF938E
:102F9000DF937C01FC018281938120813181232B8D
:102FA00081F0C0E0D0E0FC01028113810E94E621A3
:102FB0002196802F912FF70120813181C217D307ED
:102FC00090F3F7011182108213821282158214820B
:102FD000DF91CF911F910F91FF90EF900895CF92C5
:102FE000DF92EF92FF920F931F93CF93DF937C01B9
:102FF000FC01E652FF4F80819181892BF1F0C0E006
:10300000D0E06F01BE01C70145DF8C010E945D0663
:10301000181619065CF00115110541F0D801ED9163
:10302000FC910280F381E02DC80109952196F601FB
:1030300080819181C817D90728F3C70186529F4F15
:10304000A2DFDF91CF911F910F91FF90EF90DF9062
:10305000CF90089587E892E0A8CE0895CF93DF93AC
:10306000EC0184EE91E099838883CE01B8DFCE0134
:1030700086529F4F88DFCE0188559F4F0E94FA02EB
:10308000CE0189579F4F0E94F105CE018B5A9F4F69
:103090000E94FA02CE0183960E94FA02CE010296A5
:1030A0000E94F105DF91CF910895CF93DF93EC015A
:1030B000D5DFCE010E94E621DF91CF91089587E808
:1030C00092E0CCCF089508950C94E621089541151F
:1030D000510561F0FC01E25FFE4F2081622F70E03C
:1030E0004617570718F4241B20830895FC01E25F5C
:1030F000FE4F108208956F927F928F92AF92BF928F
:10310000CF92DF92EF92FF920F931F93CF93DF93B3
:103110007C01EA018881853099F44D8150E06B8112
:103120008AE592E00E941D094D8150E06B817C810F
:103130008EE794E053D461E087E693E020D353C058
:103140008E30A9F48B819C81F701EA5FFE4F918359
:10315000808332968D8190E091838083329689813D
:103160008450808331962696D183C0833CC08331BE
:1031700081F40A8123960023B1F110E04A815B813A
:1031800068817981C701A3DF24961F5F0113F6CF01
:103190002AC08E3341F58A81813029F58B818111D6
:1031A00022C03A0188E0680E711CAA88BB88C888D2
:1031B000D988EE84FF846C817D818C8883012F8186
:1031C0004E818AE592E00E94E308AA88BB88C888FD
:1031D000D988EE84FF846C817D818C882F814E811B
:1031E0008EE794E0B1D3DF91CF911F910F91FF90C3
:1031F000EF90DF90CF90BF90AF908F907F906F90C7
:103200000895EF92FF920F931F93CF93DF93EC01FA
:10321000411551056105710559F0809106029091A3
:103220000702DC01ED91FC910480F581E02D099508
:1032300000910602109107027E01B5E0EB0EF11C31
:10324000D801ED91FC910680F781E02DC801099528
:10325000892B09F43FC0D801ED91FC910284F385DC
:10326000E02DC80109956A817B819B012F5F3F4F4B
:103270003B832A83FE01E60FF71F84838C81823013
:10328000A1F426303105E4F2888590E0982F882754
:103290004F81840F911D0596281739078CF21B82E8
:1032A0001A82A701CE01ADD0CBCF843081F4243077
:1032B000310534F28E8190E00396281739070CF41B
:1032C000BFCF1B821A82A701CE0115DFB9CF1B82A7
:1032D0001A82B6CFDF91CF911F910F91FF90EF909F
:1032E000089540E050E0BA018CCF08953F924F928C
:1032F0005F926F927F928F929F92AF92BF92CF9286
:10330000DF92EF92FF920F931F93CF93DF93CDB78E
:10331000DEB77C013B01442E522E8DB69EB6FC01D9
:10332000E25FFE4F308031978081381670F0570190
:1033300082EFA81A8EEFB80A6F01C701D2DFD5015C
:103340003C90F60180813816C0F7452D50E05A01B7
:10335000F9E0AF0EB11C8DB79EB78A199B090FB665
:10336000F8949EBF0FBE8DBFADB7BEB711966D016D
:1033700082E0EDB7FEB7818312967C926E92119730
:1033800084E0850D90E014969C938E931397169687
:103390005C934E931597512C18965C924E9217970A
:1033A0008DB79EB70A96B8010E94A129F701E25F86
:1033B000FE4F339430828091060290910702DC0127
:1033C000ED91FC910484F585E02DA501B6010995E8
:1033D00080E090E00FB6F8949EBE0FBE8DBEDF91E8
:1033E000CF911F910F91FF90EF90DF90CF90BF9002
:1033F000AF909F908F907F906F905F904F903F9095
:1034000008950F931F93CF93DF93CDB7DEB72A971D
:103410000FB6F894DEBF0FBECDBFFA01668177818B
:103420006430710559F49C01235F3F4F60817181C5
:103430007F7044818AE592E006DB28C06530710523
:1034400059F49C01235F3F4F608171817F704481FB
:103450008EE794E02CD31AC08E010F5F1F4F2AE035
:10346000D8011D922A95E9F721E0298326E030E072
:103470003C832B8322E030E03E832D8378876F836B
:10348000608171817F702AE045E030DF2A960FB6B7
:10349000F894DEBF0FBECDBFDF91CF911F910F918A
:1034A00008954F925F926F927F92AF92BF92CF92A8
:1034B000DF92EF92FF920F931F93CF93DF93CDB7DD
:1034C000DEB78C017B01ADB6BEB650E03A0164E0D8
:1034D000660E711CADB7BEB7A619B7090FB6F89442
:1034E000BEBF0FBEADBFEDB7FEB731966F0191E025
:1034F00011969C93F282E18243838DB79EB7059625
:10350000B9010E94A1298091060290910702DC0175
:10351000ED91FC910484F585E02DA301B601099598
:10352000F801EA5FFE4F8FEF9FEF91838083329621
:103530009183808388E195E019D56801BAEFCB1AB1
:10354000BEEFDB0A2B013C01E8EE4E0EE3E05E1E0F
:10355000611C711CD6018D919C91E816F90659F0F9
:1035600088E195E003D5641575058605970518F47F
:10357000C801B7DEEFCFF801E85FFE4F808191818F
:103580000FB6F894BEBE0FBEADBEDF91CF911F91B6
:103590000F91FF90EF90DF90CF90BF90AF907F9012
:1035A0006F905F904F9008950F931F93CF93DF9389
:1035B000EC018B0120E030E040E069E070E171DF78
:1035C000009751F4C55FDE4FE881F98126E0D8010C
:1035D00001900D922A95E1F7DF91CF911F910F9104
:1035E00008950F931F93CF93DF9300D0CDB7DEB72D
:1035F0008C017A8369839E012F5F3F4F42E065E033
:1036000074E14FDF892B91F4F801E55FFE4F0190E3
:10361000F081E02D2081318189819A812817390735
:1036200041F48281082E000C990B05C08FE790E0D1
:1036300002C08FE790E00F900F90DF91CF911F9124
:103640000F9108958F92AF92CF92DF92EF920F93E6
:10365000CF93DF93CDB7DEB72F970FB6F894DEBFC9
:103660000FBECDBF7A8369835C834B832D830E832A
:10367000EF8226E0F601DE01189601900D922A9560
:10368000E1F7AE868F869E012F5F3F4F4FE066E0E9
:1036900070E207DF2F960FB6F894DEBF0FBECDBFE6
:1036A000DF91CF910F91EF90DF90CF90AF908F90FF
:1036B0000895EF92FF920F931F93CF93DF93CDB7AF
:1036C000DEB7A0970FB6F894DEBF0FBECDBF7C016A
:1036D000CA018E010F5F1F4F20E2F80111922A9557
:1036E000E9F76983462F50E0BC01CE0102960E94A3
:1036F000A129980140E268E070E2C701D2DEA096FD
:103700000FB6F894DEBF0FBECDBFDF91CF911F91F2
:103710000F91FF90EF900895EF92FF920F931F93F8
:10372000CF93DF93CDB7DEB7A0970FB6F894DEBF87
:103730000FBECDBF7C01CA018E010F5F1F4F20E27B
:10374000F80111922A95E9F76983462F50E0BC01F0
:10375000CE0102960E94A129980140E269E070E240
:10376000C7019FDEA0960FB6F894DEBF0FBECDBF97
:10377000DF91CF911F910F91FF90EF900895CF931C
:10378000DF931F92CDB7DEB769839E012F5F3F4F56
:1037900041E06AE070E285DE0F90DF91CF910895FD
:1037A000EF92FF920F931F93CF93DF93CDB7DEB7C6
:1037B0002E970FB6F894DEBF0FBECDBF7A83698314
:1037C0005C834B833E832D8318870F83FA86E986BB
:1037D00024E030E03C872B8726E030E03E872D87D1
:1037E0009E012F5F3F4F4EE063E170E25ADE2E965E
:1037F0000FB6F894DEBF0FBECDBFDF91CF911F9102
:103800000F91FF90EF900895CF93DF9300D01F9218
:10381000CDB7DEB723E12B837A8369839E012F5FC7
:103820003F4F43E066E074E03CDE0F900F900F9056
:10383000DF91CF910895E7E6F3E08CEE91E091837C
:103840008083138212821092750408950895FC01FA
:10385000448155816681778182819381F5D381E0AE
:1038600090E00895FC01828193819AC508958F921A
:103870009F92AF92BF92CF92DF92EF92FF92CF933F
:10388000DF93EC014A015B0188E195E06FD36B01A6
:103890007C0188E195E06AD3DC01CB018C199D099C
:1038A000AE09BF0988159905AA05BB0548F4E8814A
:1038B000F9810680F781E02DCE010995892B49F326
:1038C000DF91CF91FF90EF90DF90CF90BF90AF90BE
:1038D0009F908F900895FC0182819381DAC30895AF
:1038E000FC0182819381E7C30895FC018281938169
:1038F000EFC308950F931F93CF93DF93EC018A8159
:103900009B81F7D48C018A819B811CD5C801DF91F2
:10391000CF911F910F91089559C50895E6E7F4E0FE
:1039200084EF91E09183808382E295E093838283A8
:1039300080E092ECA1E0B0E084839583A683B78316
:103940000895089543C50895EF92FF920F931F9332
:10395000CF93DF93CDB7DEB72C970FB6F894DEBFC9
:103960000FBECDBF413069F5FC01228133812115A5
:10397000310539F184819581009719F1E216F3063A
:1039800018F08E159F05E8F48E010F5F1F4F4CE075
:10399000F80111924A95E9F742E1498341E04A83EF
:1039A00048E050E05C834B8348EC50E05C874B87F9
:1039B0003E832D8398878F832CE045E087E693E054
:1039C00095DC2C960FB6F894DEBF0FBECDBFDF910D
:1039D000CF911F910F91FF90EF9008950895AF92AE
:1039E000BF92CF92DF92EF92FF920F931F93CF93EC
:1039F000DF9300D000D000D0CDB7DEB7283008F478
:103A000045C0FE01319626E0DF011D922A95E9F7B7
:103A100023E1298322E030E03C832B834A83FC01AD
:103A20002281338121153105B1F084819581009780
:103A300091F0D8014D915C9111974217530738F0DE
:103A400012962D913C9113978217930720F481E0F1
:103A500090E09E838D8368015B018E010F5F1F4F95
:103A600026E045E087E693E041DC8D819E81892B4D
:103A700069F4F601E680F7800481158122813381A3
:103A800040815181B50187E693E08ADE26960FB624
:103A9000F894DEBF0FBECDBFDF91CF911F910F9184
:103AA000FF90EF90DF90CF90BF90AF9008950F936D
:103AB0001F93443098F0F901A281B38150E0FD01D9
:103AC00034964E175F0751F4F9014081423131F4C9
:103AD00089010C5F1F4F2A2F418181DF1F910F91B8
:103AE0000895EEE7F4E08CE092E091838083138206
:103AF0001282158214820895089568C40895CF93A0
:103B0000DF93EC019A01AB0160E874E88EE190E08C
:103B1000EAD7DA01C9010197A109B109AC01BD01D8
:103B20007695679557954795852F992780939800A7
:103B300040939900EAE9F0E0808180618083808190
:103B400088608083808180688083808180628083B8
:103B50001A821B8281E090E0DF91CF91089520913D
:103B60009B0022FD22C0E0919C00DC0112964C914A
:103B700050E09A012F5F3F4F2F733078332334F496
:103B800021503109206C3F6F2F5F3F4FDC011396AE
:103B90006C91139770E02617370749F0A40FB51FF3
:103BA0001496EC93FC012283089580919C00089563
:103BB0001F920F920FB60F9211240BB60F922F93F4
:103BC0003F934F935F936F937F938F939F93AF93A5
:103BD000BF93EF93FF9384E894E0C1DFFF91EF91EF
:103BE000BF91AF919F918F917F916F915F914F9115
:103BF0003F912F910F900BBE0F900FBE0F901F9013
:103C00001895DC01AB5BBF4F2C9130E0FC01E20F5B
:103C1000F31FEA5BFF4F40812F5F3F4F2F733078D8
:103C2000332334F421503109206C3F6F2F5F3F4F15
:103C30002C9340939C00EBE9F0E0208120742083DA
:103C4000FC01EC5BFF4FDC01AB5BBF4F20818C9133
:103C5000281305C0EAE9F0E080818F7D8083089514
:103C60001F920F920FB60F9211240BB60F922F9343
:103C70003F934F935F936F937F938F939F93AF93F4
:103C8000BF93EF93FF9384E894E0BBDFFF91EF9144
:103C9000BF91AF919F918F917F916F915F914F9164
:103CA0003F912F910F900BBE0F900FBE0F901F9062
:103CB0001895CF92DF92EF92FF920F931F93CF93BD
:103CC000DF93FC01EA57FF4F21E02083E254F10922
:103CD000208131963081231326C030919B0035FD21
:103CE0003CC021C0F701808118130AC00FB607FC41
:103CF000FDCFF601908195FFF7CFCE0182DFF2CFA5
:103D0000FE01EC5BFF4F8081C80FD11DCA5BDF4F06
:103D100008839FB7F8941083EAE9F0E0808180621D
:103D200080839FBF24C030E02F5F3F4F2F733078D8
:103D3000332334F421503109206C3F6F2F5F3F4F04
:103D4000062FEC01122F7C01F5E4EF0EF11C0F2E73
:103D5000FBE9CF2ED12CF02DC5CF9FB7F8946093FF
:103D60009C00EBE9F0E08081807480839FBF81E05C
:103D700090E0DF91CF911F910F91FF90EF90DF9036
:103D8000CF900895CF92DF92EF92FF920F931F93FF
:103D9000CF93DF934115510591F07A016C01062F05
:103DA000172FC0E0D0E0F80161918F01C60181DFDB
:103DB000892B39F02196EC16FD06A9F702C0C0E068
:103DC000D0E0CE01DF91CF911F910F91FF90EF9046
:103DD000DF90CF9008956115710551F0FB010190BE
:103DE0000020E9F73197AF01461B570BCBCF089561
:103DF00080E090E0089584E192E0909385048093C0
:103E0000840408950F931F93FC01CB010581168153
:103E10004381548120E030E060E070E0D9D21F910E
:103E20000F910895CF93DF93EC0164B175B178875A
:103E30006F83E8DFC2969C0140E050E068ED79E5D1
:103E400080E090E050D63A832983369ADF91CF9173
:103E500008951F920F920FB60F9211240BB60F9276
:103E60002F933F934F935F936F937F938F939F9382
:103E7000AF93BF93EF93FF938BE095E0D3DFFF9178
:103E8000EF91BF91AF919F918F917F916F915F91D2
:103E90004F913F912F910F900BBE0F900FBE0F903F
:103EA0001F901895EBE0F5E01082128211828FEFDF
:103EB00093E09483838388E893E1968385830895D0
:103EC000FC0140815181628173814F5F5F4F6F4F71
:103ED0007F4F408351836283738368E172E084E89B
:103EE00094E079CF08951F920F920FB60F9211248C
:103EF0000BB60F922F933F934F935F936F937F93E4
:103F00008F939F93AF93BF93EF93FF9384E195E0DB
:103F1000D7DFFF91EF91BF91AF919F918F917F91EB
:103F20006F915F914F913F912F910F900BBE0F902A
:103F30000FBE0F901F901895672B61F483B78460B4
:103F400083BF83B7886083BF12BE89EF81BF87B705
:103F5000826087BF0895672B19F487B78D7F87BF6D
:103F60000895FC0160857185F6CF0895FC0160819C
:103F70007181828193810895CF93DF93EC018881D1
:103F80009981AA81BB81BC01CD016F5F7F4F8F4FAB
:103F90009F4F688379838A839B8328EE33E040E0D8
:103FA00050E0A1D5672B682B692B81F48C819D8112
:103FB000AE81BF810196A11DB11D8C839D83AE830F
:103FC000BF836AE172E084E894E005DFDF91CF917E
:103FD00008951F920F920FB60F9211240BB60F92F5
:103FE0002F933F934F935F936F937F938F939F9301
:103FF000AF93BF93EF93FF9388E195E0BDDFFF910F
:10400000EF91BF91AF919F918F917F916F915F9150
:104010004F913F912F910F900BBE0F900FBE0F90BD
:104020001F901895E8E1F5E0108211821282138248
:104030001482158216821782089588E195E091CF47
:1040400008950895C3C10895CF93DF93EC019A01B9
:10405000AB0160E874E88EE190E045D5DA01C90172
:104060000197A109B109AC01BD01769567955795F6
:104070004795852F99278093900049B9549A539A70
:10408000579A559A1A821B8281E090E0DF91CF9176
:104090000895FC019281892F90E0805C9F4F2381DD
:1040A000821B91098F739078992324F40197806C77
:1040B0009F6F01960895FC0123813281321729F008
:1040C000E20FF11D848190E008958FEF9FEF089536
:1040D000FC01238182818217A9F030E0DF01A20F69
:1040E000B31F14968C912F5F3F4F2F73307833237B
:1040F00034F421503109206C3F6F2F5F3F4F2383F1
:1041000090E008958FEF9FEF08955A9921C0ECB188
:10411000DC0112964C9150E09A012F5F3F4F2F73B4
:104120003078332334F421503109206C3F6F2F5FF6
:104130003F4FDC0113966C91139770E026173707F9
:1041400041F0A40FB51F1496EC93FC01228308954F
:104150008CB108951F920F920FB60F9211240BB6D7
:104160000F922F933F934F935F936F937F938F9310
:104170009F93AF93BF93EF93FF9382E295E0C5DFE8
:10418000FF91EF91BF91AF919F918F917F916F912F
:104190005F914F913F912F910F900BBE0F900FBEEB
:1041A0000F901F901895DC01AB5BBF4F2C9130E056
:1041B000FC01E20FF31FEA5BFF4F40812F5F3F4F8F
:1041C0002F733078332334F421503109206C3F6F42
:1041D0002F5F3F4F2C934CB92BB120742BB9FC01AE
:1041E000EC5BFF4FDC01AB5BBF4F20818C91281350
:1041F00001C0559808951F920F920FB60F92112487
:104200000BB60F922F933F934F935F936F937F93D0
:104210008F939F93AF93BF93EF93FF9382E295E0C9
:10422000C2DFFF91EF91BF91AF919F918F917F91ED
:104230006F915F914F913F912F910F900BBE0F9017
:104240000FBE0F901F901895EF92FF920F931F9340
:10425000CF93DF93FC01EA57FF4F21E02083E25424
:10426000F10920813196308123131EC05D9931C040
:104270001BC0F7018081181308C00FB607FCFDCFE3
:104280005D9BF9CFCE018FDFF4CFFE01EC5BFF4FDA
:104290008081C80FD11DCA5BDF4F08838FB7F894A8
:1042A0001083559A8FBF1CC030E02F5F3F4F2F7394
:1042B0003078332334F421503109206C3F6F2F5F65
:1042C0003F4F062FEC01122F7C01F5E4EF0EF11C9D
:1042D000D0CF9FB7F8946CB98BB180748BB99FBF66
:1042E00081E090E0DF91CF911F910F91FF90EF90CF
:1042F0000895CF92DF92EF92FF920F931F93CF9387
:10430000DF934115510591F07A016C01062F172FAB
:10431000C0E0D0E0F80161918F01C60195DF892BE3
:1043200039F02196EC16FD06A9F702C0C0E0D0E0F6
:10433000CE01DF91CF911F910F91FF90EF90DF9011
:10434000CF900895EF92FF920F931F93CF93DF9337
:10435000FC01EA57FF4F20812223D9F07C01CAE9F2
:10436000D0E00BE910E0988195FD04C0F801808150
:1043700086FD0FC00FB607FCF6CF988195FFF3CFEF
:1043800003C0C70110DFEFCFF801808185FFEBCFBD
:10439000F8CFDF91CF911F910F91FF90EF9008958B
:1043A000CF93DF93EC01CEDF5498539857985598EC
:1043B0001A821B82DF91CF91089580E292E0909360
:1043C0002305809322050895B9C308954FC4089525
:1043D000C90108952F923F924F925F926F927F9200
:1043E0008F929F92AF92BF92CF92DF92EF92FF9205
:1043F0000F931F93CF93DF93CDB7DEB760970FB6C0
:10440000F894DEBF0FBECDBF7C011B016A01FC0129
:1044100017821682838181FF2AC39E012F5F3F4F3F
:104420003901F7019381F10193FD859193FF81910A
:104430001F01882309F417C3853239F493FD859150
:1044400093FF81911F01853231F4B70190E094D739
:1044500056016501E6CF10E0512C912CFFE1F915D2
:10446000D8F08B3279F038F4803279F08332A1F4CD
:10447000F92DF0612EC08D3261F0803369F4292D61
:1044800021602DC0392D3260932E892D8460982EA5
:104490002AC0E92DE86015C097FC2DC020ED280F3B
:1044A0002A3088F496FE06C03AE0139F200D1124AE
:1044B000122F19C08AE0589E200D1124522EE92D8A
:1044C000E0629E2E10C08E3231F496FCCCC2F92DE3
:1044D000F0649F2E08C08C3621F4292D2068922E7E
:1044E00002C0883641F4F10193FD859193FF8191DB
:1044F0001F018111B3CF9BEB980F933020F4992DBE
:104500009061805E07C09BE9980F933008F059C115
:10451000992D9F7E96FF16E09F73992E853619F48C
:104520009064992E08C0863621F4392F3068932E76
:1045300002C01111115097FE07C01C3350F44424DF
:104540004394410E27E00BC0183038F027E017E005
:1045500005C027E09CE3492E02C0212F412C5601C3
:1045600084E0A80EB11CF601608171818281938183
:10457000042DA301EED56C01F981FC87F0FF02C088
:10458000F3FF06C091FC06C092FE06C000E205C023
:104590000DE203C00BE201C000E08C858C7019F0C5
:1045A000011143C280C297FE10C04C0CFC85F4FF81
:1045B00004C08A81813309F44A94141474F528E004
:1045C000241578F588E0482E2CC096FC2AC0812F4F
:1045D00090E08C159D059CF03CEFC3163FEFD30691
:1045E00074F0892D8068982E0AC0E2E0F0E0EC0FAC
:1045F000FD1FE10FF11D8081803319F4115011115D
:10460000F4CF97FE0EC044244394410E812F90E0D6
:10461000C816D9062CF41C1904C04424439401C0C4
:1046200010E097FE06C01C141D0434F4C601019668
:1046300005C085E090E002C081E090E001110196A4
:10464000112331F0212F30E02F5F3F4F820F931F56
:10465000252D30E08217930714F4581A01C0512C0D
:10466000892D897041F4552031F0B70180E290E046
:1046700083D65A94F8CF002321F0B701802F90E021
:104680007BD693FC08C0552031F0B70180E390E061
:1046900073D65A94F8CF97FE4AC04601D7FE02C09F
:1046A000812C912CC60188199909F301E80FF91F93
:1046B000FE87ED87960124193109388B2F87012F4A
:1046C00010E01195019511093FEF8316930621F42F
:1046D000B7018EE290E050D6C814D9044CF08F8513
:1046E00098898815990524F4ED85FE85818101C09E
:1046F00080E3F1E08F1A91082D853E852F5F3F4FB3
:104700003E872D878016910624F0B70190E034D6BD
:10471000DBCFC814D90441F49A81963320F4953341
:1047200019F43C8534FF81E3B70190E048C08A81E9
:10473000813319F09C859F7E9C87B70190E01CD641
:10474000111105C094FC16C085E690E015C0B701B4
:104750008EE290E011D61E5F82E001E0080FF301C7
:10476000E80FF11D8081B70190E006D6802F01137C
:10477000F4CFE8CF85E490E0B701FED5D7FC06C0C2
:10478000C114D10441F4EC85E4FF05C0D194C19477
:10479000D1088DE201C08BE2B70190E0EDD580E356
:1047A0002AE0C216D1042CF08F5FFAE0CF1AD108AC
:1047B000F7CFB70190E0E0D5B701C601C096DCD5D0
:1047C00049C1833631F0833779F0833509F052C01F
:1047D0001FC0560132E0A30EB11CF601808189830F
:1047E00001E010E0630111C05601F2E0AF0EB11C10
:1047F000F601C080D18096FE03C0612F70E002C038
:104800006FEF7FEFC601ADD58C01F92DFF7713C097
:10481000560122E0A20EB11CF601C080D18096FEA6
:1048200003C0612F70E002C06FEF7FEFC60171D54A
:104830008C01F92DF0689F2EF3FD18C0852D90E0B6
:104840000817190798F4B70180E290E095D55A94BB
:10485000F5CFF60197FC859197FE81916F01B70125
:1048600090E08AD551105A94015011090115110593
:1048700081F7F0C0843611F0893659F5560197FE5C
:1048800009C024E0A20EB11CF60160817181828111
:1048900093810AC0F2E0AF0EB11CF6016081718114
:1048A000072E000C880B990BF92DFF769F2E97FF92
:1048B00009C090958095709561957F4F8F4F9F4F60
:1048C000F0689F2E2AE030E0A301C1D5C82EC6189B
:1048D0003EC0092D853721F40F7E2AE030E01DC04F
:1048E000097F8F3691F018F4883559F0BCC08037B5
:1048F00019F0883711F0B7C0006104FF09C00460E7
:1049000007C094FE08C0066006C028E030E005C07D
:1049100020E130E002C020E132E0560107FF09C08B
:1049200084E0A80EB11CF6016081718182819381BF
:1049300008C0F2E0AF0EB11CF6016081718180E029
:1049400090E0A30184D5C82EC6180F77902E96FE4E
:104950000BC0092D0E7FC11650F494FE0AC092FCC4
:1049600008C0092D0E7E05C0DC2C092D03C0DC2CEF
:1049700001C0D12E04FF0DC0FE01EC0DF11D8081A0
:10498000803311F4097E09C002FF06C0D394D3948A
:1049900004C0802F867809F0D39403FD10C000FF77
:1049A00006C01C2DD51478F4150D1D190CC0D51496
:1049B00050F4B70180E290E0DFD4D394F8CFD5145F
:1049C00010F45D1801C0512C04FF0FC0B70180E343
:1049D00090E0D2D402FF16C001FD03C088E790E04A
:1049E00002C088E590E0B7010CC0802F867851F0B6
:1049F00001FF02C08BE201C080E207FD8DE2B7013A
:104A000090E0BAD4C11630F4B70180E390E0B4D49A
:104A10001150F8CFCA94F301EC0DF11D8081B7015C
:104A200090E0AAD4C110F6CF15C0F4E0F51550F50A
:104A300084E0581A93FE1EC0011125C02C8523FF67
:104A400027C00EE211E0392D3071932EF8018491C8
:104A5000811121C0552009F4FCCCB70180E290E01F
:104A60008BD45A94F7CFF7018681978123C08FEFBB
:104A70009FEF20C0B70180E290E07ED45A9451109D
:104A8000F9CFDACF512CB701802F90E075D4D6CF73
:104A900002E311E0D8CF91108052B70190E06CD4BE
:104AA0000F5F1F4FD3CF23E0251510F483E0C1CF54
:104AB000512CC4CF60960FB6F894DEBF0FBECDBFA9
:104AC000DF91CF911F910F91FF90EF90DF90CF90EA
:104AD000BF90AF909F908F907F906F905F904F901E
:104AE0003F902F900895A1E21A2EAA1BBB1BFD0137
:104AF0000DC0AA1FBB1FEE1FFF1FA217B307E407BD
:104B0000F50720F0A21BB30BE40BF50B661F771F14
:104B1000881F991F1A9469F76095709580959095F4
:104B20009B01AC01BD01CF010895EE0FFF1F0024D2
:104B3000001C0BBE0790F691E02D09940F931F9374
:104B4000CF93DF938230910510F482E090E0E09102
:104B5000AB05F091AC0520E030E0A0E0B0E030978C
:104B600019F1408151810281138148175907C8F01A
:104B70008417950769F4109731F012960C931297E9
:104B800013961C9327C00093AB051093AC0522C06D
:104B90002115310519F04217530718F49A01BD0188
:104BA000EF01DF01F801DBCF21153105F9F0281BFA
:104BB000390B2430310580F48A819B8161157105A0
:104BC00021F0FB019383828304C09093AC05809312
:104BD000AB05FE01329644C0FE01E20FF31F819344
:104BE000919322503109398328833AC02091A90535
:104BF0003091AA05232B41F4209102013091030149
:104C00003093AA052093A90520910001309101015C
:104C10002115310541F42DB73EB740910401509163
:104C20000501241B350BE091A905F091AA05E217B7
:104C3000F307A0F42E1B3F0B2817390778F0AC01BF
:104C40004E5F5F4F2417350748F04E0F5F1F50939C
:104C5000AA054093A9058193919302C0E0E0F0E09A
:104C6000CF01DF91CF911F910F910895CF93DF93E3
:104C7000009709F481C0FC01329713821282A0913F
:104C8000AB05B091AC05109781F420813181820F82
:104C9000931F2091A9053091AA052817390751F5CE
:104CA000F093AA05E093A90567C0ED0120E030E08C
:104CB000CE17DF0740F44A815B819E014115510503
:104CC000F1F0EA01F5CFD383C28340815181840F93
:104CD000951FC817D90759F488819981840F951FAA
:104CE0000296918380838A819B819383828321159D
:104CF000310529F4F093AC05E093AB053DC0E90123
:104D0000FB83EA8349915991C40FD51FEC17FD0726
:104D100061F480819181840F951F0296E901998346
:104D20008883828193819B838A83E0E0F0E01296FE
:104D30008D919C911397009719F0FD01DC01F7CF3D
:104D40008D919C9111979D012E5F3F4F820F931F74
:104D50002091A9053091AA052817390769F43097E1
:104D600029F41092AC051092AB0502C01382128296
:104D7000B093AA05A093A905DF91CF9108956F92F2
:104D80007F928F929F92AF92BF92CF92DF92EF92DB
:104D9000FF920F931F93CF93DF93009781F4CB0182
:104DA000DF91CF911F910F91FF90EF90DF90CF9007
:104DB000BF90AF909F908F907F906F90BFCEFC017F
:104DC000E60FF71F9C0122503109E217F30708F4A0
:104DD000A5C0EC01D9010D911C9111970617170779
:104DE000A8F00530110508F497C0C801049786178C
:104DF000970708F491C002501109061B170B019385
:104E000011936D937C93CF0131DF86C05B01A01AB3
:104E1000B10A4C01800E911EA091AB05B091AC057A
:104E2000612C712CE12CF12C109709F446C08D9166
:104E30009C911197A815B905B1F56C0142E0C40E1B
:104E4000D11CCA14DB0478F14C018A189B08640158
:104E500042E0C40ED11C1296BC9012971396AC91EE
:104E6000B5E0CB16D10440F0B282A3839182808258
:104E7000D9016D937C9309C00E5F1F4F800F911F66
:104E8000F90191838083EB2DFA2FE114F10431F0C5
:104E9000D7011396FC93EE9312973EC0F093AC05A6
:104EA000E093AB0539C06816790608F43C017D0132
:104EB00012960D90BC91A02DB7CF8091A90590912D
:104EC000AA0588169906E1F466167706C8F480915B
:104ED000000190910101009741F48DB79EB7409178
:104EE000040150910501841B950BE817F907B0F4F4
:104EF000F093AA05E093A905F901718360830CC0C2
:104F0000CB011CDE7C01009749F0A801BE0119D23B
:104F1000CE01ACDEC70104C0CE0102C080E090E04B
:104F2000DF91CF911F910F91FF90EF90DF90CF9085
:104F3000BF90AF909F908F907F906F9008953F9219
:104F40004F925F926F927F928F929F92AF92BF9299
:104F5000CF92DF92EF92FF920F931F93CF93DF9345
:104F60005C016B017A016115710519F0FB019183F8
:104F70008083E114F10429F0C7010297839708F0B8
:104F8000C6C0E5012196F5011081812F90E0B9D1CD
:104F9000892B11F05E01F5CF1D3229F42196F50120
:104FA000118101E007C01B3221F4E5012296F501D1
:104FB000118100E0E114F104B1F0F0E1EF16F10429
:104FC00029F4AEC010E3E114F10401F12AE0E21685
:104FD000F104A9F180E1E816F10471F0E8E0EE16C1
:104FE000F104F1F413C0103339F588818F7D8835D1
:104FF00049F7198122960260F0E1EF2EF12C882406
:105000008A94982CA82CAFE0BA2E1FC078E0E72E27
:10501000F12C88248A94982CA82CEFE1BE2E15C080
:105020006FEF7FEFCB0197010F2C000C440B550B5A
:105030005ADD49015A0109C08AE0E82EF12C69E9DC
:10504000862E982CA82C69E1B62E40E060E070E036
:10505000CB0127010F2C000C66087708FE0150EDEC
:10506000352E310E29E0231570F42FEB210F2A3154
:1050700018F439EC332E06C02FE9210F2A3128F518
:1050800029EA322E310E232D30E02E153F05ECF4A7
:105090004F3FC1F086169706A806B90680F0A30117
:1050A000920136D2232D30E040E050E0620F731FB2
:1050B000841F951F621773078407950710F44FEF3D
:1050C00001C041E021961081C9CFC114D10451F033
:1050D000442311F0219703C001FF04C02297F60179
:1050E000D183C08300FF07C090958095709561952E
:1050F0007F4F8F4F9F4F4F3F79F482E290E0909324
:10510000AE058093AD053FEF2FEF9FEF0DC040E060
:1051100030E020E090E008C0462F372F282F04C051
:10512000103309F069CF61CF642F732F822FDF9185
:10513000CF911F910F91FF90EF90DF90CF90BF9094
:10514000AF909F908F907F906F905F904F903F9027
:105150000895283008F027E03327DA01990F311D30
:1051600087FD916000966105710539F432602E5F0C
:105170003D9330E32A95E1F708959F3F30F0803862
:105180007105610509F03C5F3C5F3D93913008F08B
:105190008068911DDF93CF931F930F93FF92EF923F
:1051A000192F987F9695E92F96959695E90FFF27E9
:1051B000E057FE4F99273327EE24FF24A701E7018C
:1051C00005900894079428F4360FE71EF81E491F2F
:1051D000511D660F771F881F991F0694A1F7059030
:1051E000079428F4E70EF81E491F561FC11D770FBC
:1051F000881F991F661F0694A1F70590079428F44D
:10520000F80E491F561FC71FD11D880F991F661F13
:10521000771F0694A1F70590079420F4490F561FB5
:10522000C71FD81F990F661F771F881F0694A9F7FD
:1052300084911095177041F0D695C795579547956D
:10524000F794E7941A95C1F7E6E3F1E068941590B6
:10525000159135916591959105907FE27395E118CF
:10526000F10A430B560BC90BD009C0F7E10CF11E34
:10527000431F561FC91FD01D7EF4703311F48A9549
:10528000E6CFE894015030F0080F0AF40027021727
:1052900008F4202F2395022F7A3328F079E37D93A9
:1052A0002A95E9F710C07D932A9589F6069497957B
:1052B0006795379517951794E118F10A430B560B2C
:1052C000C90BD00998F023957E9173957A3308F035
:1052D00070E37C932013B8F77E9170617D9330F07A
:1052E000839571E37D9370E32A95E1F71124EF90A4
:1052F000FF900F911F91CF91DF91992787FD909596
:105300000895911102C1803219F089508550D0F76B
:105310000895FC010590615070400110D8F7809508
:1053200090958E0F9F1F0895FB01DC0104C08D91A5
:105330000190801921F441505040C8F7881B990B07
:105340000895FB01DC0102C001900D9241505040D4
:10535000D8F70895DC0101C06D9341505040E0F74B
:105360000895FC016150704001900110D8F78095BC
:1053700090958E0F9F1F08950F931F93CF93DF93E8
:10538000FB01238121FD03C08FEF9FEF2CC022FF83
:1053900016C046815781248135814217530744F452
:1053A000A081B1819D012F5F3F4F318320838C937A
:1053B000268137812F5F3F4F3783268314C08B01AF
:1053C000EC01FB010084F185E02D0995892BE1F6C4
:1053D000D80116968D919C911797019617969C93DC
:1053E0008E931697CE01DF91CF911F910F91089563
:1053F0000F931F93CF93DF93CDB7DEB72E970FB6E2
:10540000F894DEBF0FBECDBF0D891E8986E08C8368
:105410001A8309838FEF9FE79E838D83AE01475EDA
:105420005F4F6F89788DCE0101960E94EA21EF814E
:10543000F885E00FF11F10822E960FB6F894DEBFAC
:105440000FBECDBFDF91CF911F910F910895FA014B
:10545000AA27283051F1203181F1E8946F936E7FB3
:105460006E5F7F4F8F4F9F4FAF4FB1E03ED0B4E0A4
:105470003CD0670F781F891F9A1FA11D680F791FE5
:105480008A1F911DA11D6A0F711D811D911DA11DF6
:1054900020D009F468943F912AE0269F1124301906
:1054A000305D3193DEF6CF010895462F4770405DA1
:1054B0004193B3E00FD0C9F7F6CF462F4F70405D50
:1054C0004A3318F0495D31FD4052419302D0A9F7AB
:1054D000EACFB4E0A6959795879577956795BA95A5
:1054E000C9F700976105710508959B01AC010A2E6B
:1054F00006945795479537952795BA95C9F7620F42
:10550000731F841F951FA01D08959927882708954C
:10551000DB018F939F930BD0BF91AF91A29F800D22
:10552000911DA39F900DB29F900D1124089509D055
:10553000A59F900DB49F900DA49F800D911D1124E7
:105540000895A29FB001B39FC001A39F700D811D5C
:105550001124911DB29F700D811D1124911D08957C
:1055600011E0C4E2D1E003C0FE01DFDA2196C932C6
:08557000D107D1F7F894FFCF39
:105578000000AF0520003138304600324131390093
:105588000000000053015A01323930320000000097
:1055980000FA024103AF010000000073047A0470AE
:1055A80004253032783A253032783A253032783A44
:1055B800253032783A253032783A25303278000072
:1055C800000000C004C704CA06CF06D104D904DD10
:1055D800043305B004B204B90400000000F1052F3B
:1055E800065F050000000039063D063A0600000087
:1055F800006506830600000000C9069807CA06CFA2
:1056080006D406EF0602072D073C07680780070047
:10561800000000C107DF07000000006901700100F9
:10562800000000A608B208000000007515761531C4
:10563800383030003261303000326130310031387A
:10564800303100326130350041726475696E6F0027
:10565800000000002E185518000000006318641898
:1056680000000000271C321C371C6B1C701C751CAA
:105678007A1C261C8C1C760400000000A11CA21CAD
:10568800000000007C1D7D1D520054000000000039
:04569800212022208B
:00000001FF
